:10000000C8050020992D0000D3190000FF09000049
:1000100000000000000000000000000000000000E0
:100020000000000000000000000000009B12000023
:1000300000000000000000009F1200008F28000058
:10004000031A00000D1A0000171A0000332E0000DA
:10005000211A00004F1A00007F1A00009B1A0000AE
:10006000B51A0000E71A0000011B0000331B000056
:100070004D1B00004B2E0000892E00007F1B00004E
:10008000991B0000CB1B0000E51B0000171C0000A3
:10009000311C00008B2E00008D2E00008F2E0000E2
:1000A000631C00009D1C0000C11C0000CB1C000054
:1000B000912E0000932E0000952E0000D51C00000C
:1000C00000B5010049B2002905D40121C206D20EB3
:1000D00091409C4A116000BD00B5010049B2002961
:1000E00005D40121C206D20E9140974A116000BD8D
:1000F000F0B5020052B2002A1DD4944A03005BB24C
:100100009B0804246343D258FF238407A40F0825C7
:100110006C43A3409A438B01DBB28407A40F0825EC
:100120006C43A3401343894A040064B2A408042525
:100130006C43135122E0864A03005BB21B071B0F7E
:10014000083B9D0804235D43814B040064B22407EF
:10015000240F083CA408042674431B59FF24860777
:10016000B60F08277E43B440A3438C01E4B2860750
:10017000B60F08277E43B4401C435451F0BD80B5F0
:100180001B20FFF7A9FF1B20FFF79AFF03211B206D
:10019000FFF7AEFF01BD80B56E480078C0B28008A1
:1001A0000100C907C90F002908D16A480078C0B208
:1001B000C0080100C907C90F002906D066480068B9
:1001C000002802D064480068804762480078010037
:1001D000C907C90F002908D15E480078C0B240089D
:1001E0000100C907C90F002906D05B4840680028F4
:1001F00002D059484068804756480078C0B200098C
:100200000100C907C90F00290CD052480078EF211E
:1002100001405048017050488068002802D04E4884
:10022000806880474D4800780100C907C90F002940
:100230000CD04A480078FE210140484801704648E9
:10024000C068002802D04448C068804701BD10B58E
:1002500004002000C0B2042801DA012000E00020E0
:10026000C0B2002806D1BF223D493E4800F0B0FB95
:1002700000BF00BF2000C0B2002805D0022811D066
:1002800009D3032815D01BE0B048007804210143AE
:10029000AE48017016E0AD48007804210143AB4838
:1002A00001700FE0A948007802210143A7480170BE
:1002B00008E0A648007801210143A448017001E04C
:1002C000042000E0002010BD10B504002000C0B2E2
:1002D000042801DA012000E00020C0B2002806D185
:1002E000E6221F491F4800F073FB00BF00BF20003B
:1002F000C0B2002805D0022811D009D3032815D098
:100300001BE092480078FB2101409048017016E004
:100310008E480078FB2101408C4801700FE08B482B
:100320000078FD2101408948017008E08748007885
:10033000FE2101408548017001E0042000E000201A
:1003400010BD000000E100E080E200E000E400E019
:100350001CED00E008C803409001002030C80340B5
:100360003C2D00006C2E000070B504008C4806780F
:100370008C4805782078002802D02078012801D107
:10038000012000E00020C0B2002807D187225200DF
:1003900089498A4800F01CFB00BF00BF2079012872
:1003A00002D02079002801D1012000E00020C0B255
:1003B000002807D1FF2210327F49804800F008FB57
:1003C00000BF00BF6079002802D06079012801D108
:1003D000012000E00020C0B2002807D1882252008E
:1003E0007549764800F0F4FA00BF00BFA0790028F4
:1003F00002D0A079012801D1012000E00020C0B284
:10040000002807D1FF2212326B496C4800F0E0FA55
:1004100000BF00BFE079012802D0E079002801D1B7
:10042000012000E00020C0B2002807D1892252003C
:100430006149624800F0CCFA00BF00BF2078012873
:1004400003D101203043060002E0FE2030400600C8
:100450006088002802D0608800F0B2F82079012876
:100460001BD1042028436179012902D131000226E1
:100470000E436179002902D13100FD260E40E17959
:10048000012907D108250543207AF106C90E460146
:100490000E4305E0F725054002E0FB20284005005B
:1004A000A079002802D13000FB260640A07901285F
:1004B00002D1300004260643714805707148067069
:1004C000E068002827D0E0680078012805D11F489F
:1004D0000078042101431D480170E068407801283C
:1004E00005D11A4800780421014318480170E068DA
:1004F0008078012805D1154800780221014313486E
:100500000170E068C078012805D110480078012109
:1005100001430E480170206900280FD0206900684F
:1005200071490860206940686F49486020698068A7
:100530006D4988602069C0686B49C860207D0128CA
:1005400001D1FFF71CFE002070BD00002CC8034045
:100550004B48007801210143494801700020704751
:1005600010B504002000C0B2042801DA012000E028
:100570000020C0B2002807D1E72252000E490F48E0
:1005800000F026FA00BF00BF58480078E72101407C
:10059000E000182202400A4354480270002010BDB7
:1005A000962E0000972E0000504800780421014349
:1005B0004E480170002070473C2D00006C2E00005A
:1005C00001004B480088C022120202408804800CBF
:1005D0001043474A1080002070470020B44908703B
:1005E0000020704738B5050000242800C0B2052857
:1005F00001DA012000E00020C0B2002807D18C22DF
:1006000092008849884800F0E3F900BF00BF280045
:10061000C0B2002806D0022813D009D3042822D063
:1006200018D329E0A2480078C0B2C009040023E032
:100630009F480078C0B280090100C907C90F0C00AB
:100640001AE09B480078C0B240090100C907C90FF1
:100650000C0011E096480078C0B2C0080100C9073C
:10066000C90F0C0008E092480078C0B240080100B1
:10067000C907C90F0C00FFE72000C0B232BD00005F
:1006800000C8034004C8034010B504002000C0B2F5
:10069000052801DA012000E00020C0B2002806D1C0
:1006A000844A6049604800F093F900BF00BF200011
:1006B000C0B20028022804D9C01E03D0401E08D0B2
:1006C0000EE00FE07A480078F72101407848017089
:1006D00008E077480078FD2101407548017001E08D
:1006E000042000E0002010BD9001002028C8034035
:1006F0001CC8034038B5050000242800C0B20828F3
:1007000001DA012000E00020C0B2002806D1984A9A
:100710004449454800F05CF900BF00BF2800C0B262
:1007200000280BD0022818D00ED3042827D01DD3C0
:10073000062836D02CD307283CD042E099480078D0
:10074000C0B2C00904003CE096480078C0B28009FD
:100750000100C907C90F0C0033E092480078C0B20D
:1007600040090100C907C90F0C002AE08D48007834
:10077000C0B200090100C907C90F0C0021E0894877
:100780000078C0B2C0080100C907C90F0C0018E00A
:1007900084480078C0B280080100C907C90F0C0066
:1007A0000FE080480078C0B240080100C907C90FB7
:1007B0000C0006E07B4800780100C907C90F0C0057
:1007C000FFE72000C0B232BD10B504002000C0B267
:1007D000082801DA012000E00020C0B2002806D17C
:1007E000714A1049104800F0F3F800BF00BF200024
:1007F000C0B20028032803D9001F032807D90DE041
:100800006A480078802101436848017008E0674821
:100810000078402101436548017001E0042000E0B8
:10082000002010BD3C2D00006C2E000038B50500E6
:1008300000242800C0B2042801DA012000E00020D2
:10084000C0B2002807D1C12292005949594800F08E
:10085000BFF800BF00BF2800C0B2002805D00228A2
:1008600013D00BD3032819D01FE011480078C0B271
:1008700080080100C907C90F0C0016E00C48007879
:100880000100C907C90F0C000FE009480078C0B289
:1008900000090100C907C90F0C0006E046480078AE
:1008A0000100C907C90F0C00FFE72000C0B232BD2C
:1008B00008C803405E02000010B504002000C0B26A
:1008C000042801DA012000E00020C0B2002806D18F
:1008D0003A4A3749374800F07BF800BF00BF200094
:1008E000C0B2002805D0022811D009D3032815D0A2
:1008F0001BE033480078FB2101403148017016E0CD
:100900002F480078FE2101402D4801700FE02C484F
:100910000078EF2101402A48017008E0264800785D
:10092000FE2101402448017001E0042000E0002085
:1009300010BD010023480170002070472148007855
:10094000C0B27047194800788021014317480170F0
:10095000002070471548007840210143134801707A
:100960000020704718480078C0B2000970470000A6
:1009700099020000154800780221014313480170D4
:100980000020704711480078FD2101400F48017098
:10099000002070470D480078012101430B48017089
:1009A000002070470CC80340D202000000C803407A
:1009B0003C2D00006C2E000030C803402D030000C9
:1009C00008C8034014C8034010C8034028C80340A7
:1009D00000B583B00091019202906A460449182044
:1009E000ABBE002801D100F005F803B000BD00BF88
:1009F0001010020080B5012000F002F801BDFEE7F2
:100A000080B500BF00BF024A11001820ABBEFBE753
:100A10002600020000B5010049B2002905D40121D9
:100A2000C206D20E9140664A116000BD00B50100B9
:100A300049B2002905D40121C206D20E9140614A73
:100A4000116000BDF0B5020052B2002A1DD45E4A0A
:100A500003005BB29B0804246343D258FF2384073E
:100A6000A40F08256C43A3409A438B01DBB2840793
:100A7000A40F08256C43A3401343534A040064B2F7
:100A8000A40804256C43135122E0504A03005BB2D2
:100A90001B071B0F083B9D0804235D434B4B0400C1
:100AA00064B22407240F083CA408042674431B598D
:100AB000FF248607B60F08277E43B440A3438C016A
:100AC000E4B28607B60F08277E43B4401C43545156
:100AD000F0BD80B51820FFF7A9FF1820FFF79AFF97
:100AE00003211820FFF7AEFF01BD00B5384800789C
:100AF000C006C00E36490870364800780100C907A4
:100B0000C90F0029F8D0002000BD80B501210120C7
:100B100000F0AAFA2F4800780100C9B2490908007C
:100B2000C0B2042803D00800C0B2052811D128485B
:100B30000078C006C00E20220243254802702548D6
:100B40000078C0B240080200D207D20F002A11D1AB
:100B5000F5E720480078C0B240080200D207D20F63
:100B6000002AF6D01A480078C006C00E20220243A0
:100B700017480270002002BD15480078C006C00E5C
:100B800080210143124801700020704700B51048D1
:100B90000078082101430E4801700E480078C0B269
:100BA000C0080100C907C90F0029F6D0084800781D
:100BB000C006C00EA021014305480170002000BD01
:100BC00000E100E080E200E000E400E01CED00E075
:100BD000000001400400014070B505000C00002633
:100BE0002800C0B200280FD02800C0B201280BD0C6
:100BF0002800C0B2022807D02800C0B2032803D0C2
:100C00002800C0B2042801D1012000E00020C0B2B9
:100C1000002807D1FF226A322F493048FFF7D8FE5B
:100C200000BF00BF2100C907C90F2800C0B20028BB
:100C300006D002280FD024D3042817D02CD336E0B6
:100C4000A7480078DF2202404801202318401043C3
:100C5000A34A10702DE0A2480078EF22024008015C
:100C60001023184010439E4A107022E09C480078E0
:100C7000FE2202400800C007C00F1043984A1070BF
:100C800017E097480078EF2202400801102318402F
:100C90001043934A10700CE091480078FD22024006
:100CA00048000223184010438D4A107001E00420D0
:100CB00006003000C0B270BD10B50400894800685D
:100CC000002802D0874800688047874800780121C3
:100CD00001438548017010BDAC2C00004C2E000073
:100CE00010B5040081480078C0B240090100C9076E
:100CF000C90F00290CD07E480068002802D07C482B
:100D000000688047784800782021014376480170C8
:100D100076480078C0B2C0080100C907C90F002991
:100D20000CD074480068002802D0724800688047E0
:100D30006D480078082101436B4801706B480078CA
:100D4000C0B200090100C907C90F00290CD06A48C8
:100D50000068002802D06848006880476248007830
:100D6000102101436048017010BD0000F8B5040077
:100D7000002700250020694608702000C0B2002826
:100D800006D0012807D0042808D0052809D00BE098
:100D9000FFF7ABFE0AE0FFF7B8FE07E0FFF7ECFE57
:100DA00004E0FFF7F3FE01E0042020E0534E684624
:100DB00053490978C9B249094170002E0CD0761EFA
:100DC00050480078C0B240096946087068464078CB
:100DD000694609788842F0D100F0F7F96846407812
:100DE00069460978884201D1002000E00120F2BD67
:100DF00038B505000024684643490A6802602800A7
:100E0000C0B200280BD02800C0B2012807D02800AB
:100E1000C0B2042803D02800C0B2052801D10120A7
:100E200000E00020C0B2002806D1384A38493948CD
:100E3000FFF7CEFD00BF00BF2800C0B2002806D0DB
:100E400001280ED004280FD0052811D014E06846E0
:100E5000824909788907890F405C28494843040082
:100E60000AE07F48040007E0FA20C001040003E024
:100E7000802000020400FFE7200032BDF8B5002406
:100E80000025204800780600F6B276093000C0B28E
:100E9000FFF7AEFF734909784F077F0F3900C9B2DA
:100EA000002909D002290AD007D304290DD00AD37A
:100EB000062910D00DD310E00FE040080DE003210B
:100EC00000F094F909E0800807E0062100F08EF9AF
:100ED00003E0C00801E00009FFE79A490860F2BD9D
:100EE00060000140AC010020680001406400014046
:100EF000A8010020B0010020B401002040420F00F2
:100F00000000014004000140842E00002302000084
:100F1000AC2C00004C2E000010B50400002C01D0B9
:100F2000012000E00020C0B2002806D1874A89498C
:100F30008948FFF74DFD00BF00BF2078072801DA80
:100F4000012000E00020C0B2002806D1834A814978
:100F50008148FFF73DFD00BF00BF6078042801DA3B
:100F6000012000E00020C0B2002806D17C4A794967
:100F70007948FFF72DFD00BF00BFA078042801DAF3
:100F8000012000E00020C0B2002807D1AF2292006B
:100F900070497148FFF71CFD00BF00BF2078314940
:100FA0000978F8220A404007400F10432D49087085
:100FB000607865490978FC220A408007800F104359
:100FC00061490870A07862490978FC220A408007CC
:100FD000800F10435E490870E0780007000F6149F8
:100FE0000978F0220A400007000F10435D4908709D
:100FF00020790007000F5B4909780907090F0001F4
:10100000084358490870607901280CD1A0685649F6
:10101000086061480078012101435F4801700121A7
:101020000420FFF7D9FDA07901280CD1A0684E4912
:101030000860594800780221014357480170012196
:101040000320FFF7C9FDA079012802D060790128AB
:1010500001D1FFF73EFD002010BD00000CE0024072
:101060000048E8011000014070B505000C000026A2
:101070002800C0B200280BD02800C0B2012807D039
:101080002800C0B2042803D02800C0B2052801D12E
:10109000012000E00020C0B2002807D1C222920047
:1010A0002C492D48FFF794FC00BF00BF2100C90761
:1010B000C90F2800C0B2002804D001280DD005288F
:1010C00030D03AE037480078FE2202400800C007DE
:1010D000C00F1043334A107031E0304800780122CD
:1010E00002432E4802702E480068302290432C4A5A
:1010F00010602B4800683022904310220243284899
:1011000002602948006803220243274802602548FC
:101110000078FD2202404800022318401043214A73
:1011200010700CE01F480078F7220240C800082326
:10113000184010431B4A107001E0042006003000E4
:10114000C0B270BDA000002014000140B902000030
:1011500018000140AC2C00004C2E0000BA02000028
:10116000BB02000030000140AC01002000B50100CE
:1011700000200A00D2B2002A032A09D80B4A1278AA
:10118000FC2313408A07920F1A43084B1A7001E0A0
:1011900004221000C0B200BD600001403050034086
:1011A000100000400000014020E002400CE002403E
:1011B00080B50948094908600948084908600020C5
:1011C0000849087000F001F801BD80B5FFF756FE30
:1011D0000549086001BD000051E5CC1A141001401A
:1011E000AE1A33E508100140A00000200022030AD7
:1011F0008B420BD203098B4219D243088B422ED269
:10120000411A00D20146524110467047FF2209029E
:101210003FD012068B4205D3121209028B4201D332
:101220001212090203098B4219D300E0090AC3090B
:101230008B4201D3CB01C01A524183098B4201D3A7
:101240008B01C01A524143098B4201D34B01C01A92
:10125000524103098B4201D30B01C01A5241C3080A
:101260008B4201D3CB00C01A524183088B4201D379
:101270008B00C01A524143088B4201D34B00C01A65
:101280005241884200D3401A5241CFD20146104603
:10129000704708B500F002F808BDFEE77047FEE7AA
:1012A00000B5010049B2002905D40121C206D20EC1
:1012B0009140924A116000BD00B5010049B2002979
:1012C00005D40121C206D20E91408D4A116000BDA5
:1012D000F0B5020052B2002A1DD48A4A03005BB264
:1012E0009B0804246343D258FF238407A40F0825D6
:1012F0006C43A3409A438B01DBB28407A40F0825FB
:101300006C43A34013437F4A040064B2A40804253D
:101310006C43135122E07C4A03005BB21B071B0F96
:10132000083B9D0804235D43774B040064B2240707
:10133000240F083CA408042674431B59FF24860785
:10134000B60F08277E43B440A3438C01E4B286075E
:10135000B60F08277E43B4401C435451F0BD10B56E
:1013600004002000C0B200280BD02000C0B2012829
:1013700007D02000C0B2022803D02000C0B203284A
:1013800001D1012000E00020C0B2002806D19B223C
:101390005E495F48FFF71CFB00BF00BF2000C0B2E2
:1013A0005C492200D2B214235A438958884205D19D
:1013B0005848E4B214214C43001900E0002010BD4D
:1013C00080B51F20FFF778FF1F20FFF769FF03217B
:1013D0001F20FFF77DFF01BDF8B50400002069461E
:1013E0000870002700252000C0B200280BD0200084
:1013F000C0B2012807D02000C0B2022803D02000CC
:10140000C0B2032801D1012000E00020C0B20028B2
:1014100006D1CF223D493E48FFF7DAFA00BF00BFB0
:101420002000C0B2FFF79BFF0600002E24D06846C4
:101430007168097C0170706820214843364945185D
:101440006846007822210140222908D10021280085
:10145000001D0160F068002801D0F06880476846F0
:10146000007811210140112906D100202860B068C0
:10147000002801D0B0688047F1BDF8B50500002014
:1014800069460870002400272800C0B200280BD04D
:101490002800C0B2012807D02800C0B2022803D01B
:1014A0002800C0B2032801D1012000E00020C0B212
:1014B000002807D1FF220A3214491548FFF788FA9D
:1014C00000BF00BF2800C0B2FFF749FF0600002E92
:1014D00012D07068077C78070ED5706820214843C9
:1014E0000D494018040000212000083001603069D7
:1014F000002801D030698047F1BD000000E100E024
:1015000080E200E000E400E01CED00E06C2D000053
:10151000542E00000000002000020042F1B582B00D
:101520000C00002001900026002C01D0012000E0DA
:101530000020C0B2002806D1974A98499948FFF781
:1015400047FA00BF00BF6846007A082801DA012088
:1015500000E00020C0B2002806D1914A8F4991488E
:10156000FFF736FA00BF00BF20780B2801DA012010
:1015700000E00020C0B2002807D1CD22D200874968
:101580008848FFF725FA00BF00BF6078022801DA1B
:10159000012000E00020C0B2002806D1824A7F4925
:1015A0008048FFF715FA00BF00BFE078022801DA93
:1015B000012000E00020C0B2002806D18E4A774901
:1015C0007848FFF705FA00BF00BFA078062801DAC7
:1015D000012000E00020C0B2002806D1874A6F49F0
:1015E0007048FFF7F5F900BF00BF2079022801DA43
:1015F000012000E00020C0B2002806D1804A6749DF
:101600006848FFF7E5F900BF00BF6846007AFFF7BA
:10161000A6FE0500002D01D10420BCE06E68B08953
:101620008B490140B181B08989490140302008438C
:10163000B081277820780028072803D908380228A5
:101640000ED91BE0707CFE2101407174B089814984
:1016500001403803E022D20102400A43B2810FE088
:10166000707C012101437174B0897A4901403803CB
:10167000E022D20102400A43B28101E004208AE064
:101680006078002802D0012805D009E0B08985499A
:101690000140B18106E0B08980210143B18101E0C0
:1016A000042078E0E078002802D0012805D009E085
:1016B000B0898F490140B18106E0B089082101431A
:1016C000B18101E0042066E06846A1780180A0783D
:1016D0000028032804D9001F12D0401E19D024E08E
:1016E000707C4006400E7074B1898248084069469B
:1016F00009880902C02292000A400243B28116E022
:10170000707C802101437174B0897A490140B181B4
:101710000DE0707C802101437174B08975490140EE
:10172000802040000843B08101E0042033E02079AC
:10173000002802D0012805D009E0B0896E49014097
:10174000B18106E0B08904210143B18101E00420A8
:1017500021E0A06800280FD0A0680078012803D1FC
:10176000307C402101433174A0684078012803D1C6
:10177000307C102101433174E068002805D0E06816
:1017800000682861E0684068A860207C012801D1D9
:10179000FFF716FE0020FEBD660600006C2D00005F
:1017A00067060000542E00006906000070B50400B2
:1017B000002600252000C0B2082801DA012000E040
:1017C0000020C0B2002806D14D4A4C494D48FFF7D1
:1017D000FFF800BF00BF2000C0B2FFF7C0FD02004D
:1017E000002A01D1042005E05168888902230343BF
:1017F0008B81002070BD00006A0600006B060000AF
:101800006C06000070B50400002600252000C0B260
:10181000082801DA012000E00020C0B2002806D12B
:10182000394A36493748FFF7D3F800BF00BF2000D8
:10183000C0B2FFF794FD0200002A01D1042005E0A8
:1018400051688889324B03408B81002070BD0000B5
:101850008FFF0000FF8F000070B5040000260025F8
:101860002000C0B2082801DA012000E00020C0B248
:10187000002806D1254A21492248FFF7A9F800BFD0
:1018800000BF2000C0B2FFF76AFD0200002A01D1AC
:10189000042005E051688889012303438B810020DF
:1018A00070BD00007FFF0000F8B504000D000027A8
:1018B00000262000C0B2082801DA012000E0002044
:1018C000C0B2002806D1134A0C490E48FFF780F831
:1018D00000BF00BF2000C0B2FFF741FD0200002A98
:1018E00001D1042002E051680D800020F2BD00000B
:1018F000F7FF0000FFFC0000FBFF00006C2D000064
:1019000031070000542E000052070000730700004A
:10191000FDFF00009507000038B505000C00200011
:10192000C0B2002806D0012809D0022808D0042817
:101930000BD00FE02800C0B200BF00BF0AE009E0F2
:101940002800C0B200BF00BF04E02800C0B200BF42
:1019500000BFFFE731BD38B505000C002000C0B264
:10196000002806D0012809D0022808D004280BD06E
:101970000FE02800C0B200BF00BF0AE009E0280065
:10198000C0B200BF00BF04E02800C0B200BF00BF6B
:10199000FFE731BD38B505000C002000C0B20028BB
:1019A00006D0012809D0022808D004280BD00FE067
:1019B0002800C0B200BF00BF0AE009E02800C0B2A2
:1019C00000BF00BF04E02800C0B200BF00BFFFE7B7
:1019D00031BD10B50020B8490C682100C9B20A0019
:1019E000D207D20F012A02DB002000F070FA20009B
:1019F000C0B202210840012802DB002000BF00BF66
:101A000010BD80B50020FFF76BF901BD80B5002047
:101A100000BF00BF01BD80B5002000F011FB01BD7B
:101A200038B500200021A54A146800252800C0B25E
:101A300008280BDA0120A8402100C9B2014203D0D6
:101A40002800C0B200F0E9F96D1CEFE731BD38B5F0
:101A500000200021B04A146800252800C0B20828E0
:101A60000CDA0120A8402100C9B2014204D02800AC
:101A70000830C0B200F0FEF96D1CEEE731BD10B5C4
:101A8000A6480468E00702D5012000BF00BFA007F8
:101A900002D5022000BF00BF10BD38B50025A04808
:101AA00000780400E4B264092100C9B20020FFF705
:101AB00033FF31BD38B500200021994A1278140057
:101AC000E4B26409974A1568AA0704D52100C9B28F
:101AD0000020FFF75FFFE80704D52100C9B200200E
:101AE000FFF739FF31BD38B500258F480078040075
:101AF000E4B264092100C9B20120FFF70DFF31BD36
:101B000038B500200021884A12781400E4B2640934
:101B1000864A1568AA0704D52100C9B20120FFF73B
:101B200039FFE80704D52100C9B20120FFF713FFF0
:101B300031BD38B500257E4800780400E4B2640960
:101B40002100C9B20220FFF7E7FE31BD38B5002001
:101B50000021774A12781400E4B26409754A1568C6
:101B6000AA0704D52100C9B20220FFF713FFE80736
:101B700004D52100C9B20220FFF7EDFE31BD38B512
:101B800000256D4800780400E4B264092100C9B260
:101B90000420FFF7C1FE31BD38B500200021664AA0
:101BA00012781400E4B26409644A1568AA0704D5DF
:101BB0002100C9B20420FFF7EDFEE80704D521009B
:101BC000C9B20420FFF7C7FE31BD38B500255C4817
:101BD00000780400E4B264092100C9B20520FFF7CF
:101BE0009BFE31BD38B500200021554A1278140003
:101BF000E4B26409534A1568AA0704D52100C9B2A2
:101C00000520FFF7C7FEE80704D52100C9B205206B
:101C1000FFF7A1FE31BD38B500254B480078040020
:101C2000E4B264092100C9B20620FFF775FE31BD98
:101C300038B500200021444A12781400E4B2640947
:101C4000424A1568AA0704D52100C9B20620FFF749
:101C5000A1FEE80704D52100C9B20620FFF77BFEEC
:101C600031BD10B53A480468E00702D50020FFF7FF
:101C700023F8A00702D50020FFF71EF8A00602D522
:101C8000012000BF00BF600602D5002000BF00BFDA
:101C9000200602D5002000BF00BF10BD10B52D48A2
:101CA0000468E00702D5002000BF00BFE00602D5AF
:101CB000002000BF00BF10BD1010034024100340DF
:101CC00080B5002000BF00BF01BD80B50020FEF739
:101CD00062FA01BD38B500201F490C6800252800B4
:101CE000C0B2082816D2022068432100C140C807AC
:101CF00003D52800C0B2FFF76FFB02200221694321
:101D000088402040002803D02800C0B2FFF7B5FB70
:101D10006D1CE4E731BD0000281003402C10034087
:101D20000080034034100340008103403C10034016
:101D300000820340441003400070034054100340ED
:101D4000007103405C1003400072034064100340C4
:101D500074100340781003409010034000B5010058
:101D600049B2002905D40121C206D20E91409F4AF2
:101D7000116000BD00B5010049B2002905D4012160
:101D8000C206D20E91409B4A116000BDF0B5020020
:101D900052B2002A1DD4964A03005BB29B08042469
:101DA0006343D258FF238407A40F08256C43A34044
:101DB0009A438B01DBB28407A40F08256C43A34030
:101DC00013438B4A040064B2A40804256C431351E6
:101DD00022E0894A03005BB21B071B0F083B9D08EA
:101DE00004235D43844B040064B22407240F083CA1
:101DF000A408042674431B59FF248607B60F08273E
:101E00007E43B440A3438C01E4B28607B60F082793
:101E10007E43B4401C435451F0BD10B50400200073
:101E2000C0B2102801DA012000E00020C0B2002872
:101E300006D1AA2271497248FEF7CAFD00BF00BF51
:101E4000704800680121A1400022D2434A4002406C
:101E50006C4802606C482100C9B2042251434058CA
:101E6000002806D068482100C9B2042251434058D6
:101E7000804710BD10B504002000C0B2102801DA60
:101E8000012000E00020C0B2002806D1C3225B4937
:101E90005B48FEF79DFD00BF00BF5A480068012166
:101EA000A1400022D2434A400240564802605648B0
:101EB0002100C9B2042251434058002806D052489C
:101EC0002100C9B2042251434058804710BD80B55B
:101ED0004E480068804701BDF8B504000E002000A0
:101EE000C0B2102801DA012000E00020C0B20028B2
:101EF00006D1ED2241494248FEF76AFD00BF00BF0E
:101F0000002E01D0012000E00020C0B2002806D140
:101F1000EE223A493A48FEF75BFD00BF00BF3C485D
:101F200005683C480168307801282ED12000C0B2F5
:101F3000102825DA7078002805D0022810D008D3A0
:101F4000032814D01AE00320022262439040854304
:101F500016E02A00012502206043854015430FE06A
:101F60002A000225022060438540154308E02A002C
:101F70000325022060438540154301E0042034E03E
:101F80000120A0400843010002E00120A04081435D
:101F900070681D4A2300DBB204277B43D0501C48E5
:101FA00005600020174A10601A4801601948076848
:101FB000F8B2002809D00420FFF7DCFE032104203A
:101FC000FFF7E4FE0420FFF7C9FEFF2000023840BF
:101FD000002809D00520FFF7CDFE03210520FFF7DB
:101FE000D5FE0520FFF7BAFE0020F2BD00E100E0BB
:101FF00000E400E080E200E01CED00E0DC2C0000EA
:102000005C2E00000800034050010020B8010020B1
:102010000C0003400000034000B50100002901D17D
:10202000042003E00868054A1060002000BD00207D
:10203000014908800020704718000340B8010020C3
:1020400010B50400002000F023F8012809D1002079
:102050000C4908700C480068002802D00A48006843
:102060008047022000F014F8012809D10648406892
:10207000002802D0044840688047002003490870C7
:1020800010BD00000C500340A00100201C50034074
:1020900038B5050000242800C0B200280FD0280061
:1020A000C0B201280BD02800C0B2022807D02800F7
:1020B000C0B2032803D02800C0B2042801D10120F7
:1020C00000E00020C0B2002807D1FF22A0321E4944
:1020D0001E48FEF77DFC00BF00BF2800C0B20028EC
:1020E00006D0022814D00AD3042821D017D328E020
:1020F000174800880100C907C90F0C0021E01448E7
:10210000008880B2000A0100C907C90F0C0018E05E
:10211000104800880100C907C90F0C0011E00D48E4
:10212000008880B2000A0100C907C90F0C0008E04E
:102130000848008880B2400A0100C907C90F0C0096
:10214000FFE72000C0B232BD0C2D0000642E00005D
:10215000085003401850034010B50120FEF766FBFD
:10216000002815D00120FEF7A7FBA54800784028DD
:1021700002DB0020A2490870A14804782000401C1E
:102180009F490870FEF7DAFB9E49E4B20855E4E780
:102190000420FEF727FA002803D00420FEF774FA83
:1021A000F6E710BD80B50020FEF740FB002803D005
:1021B0000020FEF781FBF6E70320FEF713FA002864
:1021C0000AD00120904908700320FEF75DFAFEF75F
:1021D000C9FB8E490870EFE701208D49087001BDE9
:1021E00080B500208B4908808B480078042101438A
:1021F00089480170884800780121014386480170B0
:102200008548007802210143834801708348008893
:1022100083490140802040000843804908807F486E
:102220000088804901408020C00008437B49088025
:102230007A4800887C490140802040010843774962
:10224000088000200090002301220321052000F0D7
:1022500030FA00220321052000F059FA01BD80B5B3
:10226000002067490870FEF78DFB642000F0A4FA97
:10227000FEF780FB624800781228FBDBFEF7ADF921
:102280000020FEF719FB0120FEF716FB0220FEF7E7
:1022900013FB0320FEF710FBFEF754FBFEF75AFB7F
:1022A00001BD80B501220321052000F030FA01BDF7
:1022B00080B500220321052000F029FA01BD80B578
:1022C0000120FDF7C4FF01BD80B50120FDF7FCFF33
:1022D00001BD80B58AB01821684600F061FA10216E
:1022E00006A800F05DFA514807905148069000207A
:1022F00069460870BA204000694648800120694656
:10230000087100206946487101206946087500205F
:102310006946887101200399487000206946087257
:1023200006A804906846FEF71FF80220FEF718F989
:10233000FEF73AF9FEF72EFBFEF74FF9FEF702FB28
:10234000FEF708FBFEF704F9FFF7ABFF0120FDF7EE
:102350007EFFFFF784FF0120FDF7B6FFFFF7A8FF20
:102360000BB000BD70B505000C0000263000290040
:10237000C0B2C9B2884218D3254800780028FBD0E3
:102380000020234908702048007800280CD0002045
:102390001D490870FEF7D6FA761C1C480078361ADC
:1023A00000201A49087000E028E00220FEF7A2F998
:1023B00000281CD00220FEF707FA154800780028F4
:1023C000FBD00020124908700F48007800280CD07C
:1023D00000200D490870FEF7B5FA761C0B4800780E
:1023E000361A002009490870C0E7761CBEE73000A5
:1023F000C0B2205CFEF79DFA761CB7E770BD000006
:10240000C2010020D0000020C3010020C50100202F
:10241000C40100200035034014300340243603403B
:10242000FFFC0000FFF30000FFCF00005921000077
:10243000A521000038B584B00024FFF710FF00206C
:102440004049087042490520FFF78CFFFA208000C0
:1024500000F0CEF93B480078002805D13A480078D2
:102460000028F7D000206AE000F00CFA002035497F
:10247000087038490220FFF775FFFA20800000F04D
:10248000B7F930480078022805DA2F48007800288C
:10249000F7D0002053E000F0F5F92C4800786128CF
:1024A00011D12A484578294840782B4908710020E5
:1024B0002449087028490520FFF754FFFA208000BE
:1024C00000F096F901E0002039E01E48007829006C
:1024D000C9B2C91C884205DA1B4800780028F4D02C
:1024E00000202CE000F0CEF902A81C490CC90CC059
:1024F0000839083868461A490CC90CC00839083828
:1025000000201049087017490520FFF72BFFFA201B
:10251000800000F06DF90B480078002805D10A48CA
:1025200000780028F7D0002009E000F0ABF9002087
:10253000044908700C490F20FFF714FFFEE705B0AF
:1025400030BD0000C2010020BF010020D0000020EB
:10255000AC000020CC000020A4000020742E00005D
:102560007C2E0000B4000020BC00002030B5030029
:1025700000201C00E4B2002C08D10C00E4B2002CB6
:1025800004D11400E4B2734D2C6090E01C00E4B25E
:10259000002C08D10C00E4B2012C04D11400E4B2E8
:1025A0006D4D2C6083E01C00E4B2002C08D10C00BF
:1025B000E4B2022C04D11400E4B2684D2C6076E041
:1025C0001C00E4B2002C08D10C00E4B2032C04D1AE
:1025D0001400E4B2624D2C6069E01C00E4B2062CE9
:1025E00008D10C00E4B2002C04D11400E4B25D4D1B
:1025F0002C605CE01C00E4B2062C08D10C00E4B2B4
:10260000012C04D11400E4B2574D2C604FE01C00A3
:10261000E4B2062C08D10C00E4B2022C04D1140060
:10262000E4B2524D2C6042E01C00E4B2062C08D10A
:102630000C00E4B2032C04D11400E4B24C4D2C6025
:1026400035E01C00E4B2052C08D10C00E4B2002CEB
:1026500004D11400E4B2474D2C6028E01C00E4B221
:10266000052C08D10C00E4B2012C04D11400E4B212
:10267000414D2C601BE01C00E4B2052C08D10C007D
:10268000E4B2022C04D11400E4B23C4D2C600EE004
:102690001C00E4B2052C08D10C00E4B2032C04D1D8
:1026A0001400E4B2364D2C6001E004242000C0B2D6
:1026B00030BDFEB505000C001700089E00200090FC
:1026C00000222100C9B22800C0B2FFF74FFF280046
:1026D000C0B2C0012100C9B2890041180020294AB6
:1026E0008A1810603800C0B2274A8A1810606846FD
:1026F000007A264A8A1810603000C0B2244A8A182C
:1027000010600020234A8A1810600020FEBD30B4FB
:102710000300DBB2802463430C00E4B204256C4365
:102720001B191400E4B21C4D5D192C6030BC7047BD
:1027300010B402001000C0B2802358430B00DBB27B
:1027400004246343C018154BC0180068C0B210BC05
:102750007047000000A0664204A0664208A06642DE
:102760000CA0664210A0664214A0664218A0664201
:102770001CA0664220A0664224A0664228A06642B1
:102780002CA066420000664200406642002066427D
:1027900000E06642002067420080664200606642B8
:1027A00000B50200002A06D0002904D0491E0023EB
:1027B0001370521CF8E700BD38B5040000200090EB
:1027C0000025FEF75BFB0749FEF710FD002C08D043
:1027D000641E009000990029F8D00099491E0091CC
:1027E000F8E731BDA0860100012024490870704738
:1027F00070B588B00400002502216846FFF7D0FFBD
:10280000082106A8FFF7CCFF142101A8FFF7C8FF95
:1028100000201A4908706846039006A80490042016
:1028200069460871002001A94870012001A90871BA
:10283000002001A98870002001A9C8700020039918
:1028400008700120039948700D48049948600120E0
:1028500001A9087401A90020FEF760FE3E26664328
:10286000310089B20020FFF71FF80020FEF79EFF1D
:102870000020FEF7F1FF08B070BD0000BF0100208E
:10288000E927000080B50020FEF7BCFF01BDFEE790
:1028900000B50200D2B2002A09D0002211000A00BD
:1028A000D2B2022A01DA491CF9E7401EF1E700BD65
:1028B00038B504000120FFF7EBFF00252800C0B267
:1028C000082825DA002202210020FFF720FF01203E
:1028D000FFF7DEFF200605D5012201210020FFF7CA
:1028E00016FF04E0002201210020FFF710FF640022
:1028F0000120FFF7CDFF00BF00BF00BF0122022172
:102900000020FFF704FF0120FFF7C2FF6D1CD5E791
:1029100031BD10B504000120FFF7BAFF00220021ED
:102920000020FFF7F4FE002206210020FFF7EFFE53
:102930002000C0B2FFF7BCFF012200210020FFF7FA
:10294000E6FE10BD10B504000120FFF7A1FF002234
:1029500000210020FFF7DBFE012206210020FFF707
:10296000D6FE2000C0B2FFF7A3FF01220021002005
:10297000FFF7CDFE10BD80B500200090002301229E
:1029800001210020FFF795FE002000900023012286
:1029900002210020FFF78DFE00200090002301227D
:1029A00000210020FFF785FE002000900023012277
:1029B00005210020FFF77DFE00200090002301226A
:1029C00006210020FFF775FE002000900023002262
:1029D00004210020FFF76DFE01BD80B50022052116
:1029E0000020FFF794FEFA208000FFF7E5FE0122A9
:1029F00005210020FFF78BFEFA208000FFF7DCFEA8
:102A000001BD80B598202C49087000202B49087022
:102A100098202B490870FFF7E0FF0120FFF779FFAE
:102A20000320FFF78FFF0020FFF78CFF2B20FFF71D
:102A300089FF2B20FFF786FF0320FFF783FF062087
:102A4000FFF767FF1720FFF77DFF1720FFF77AFFDB
:102A50001720FFF777FF0420FFF75BFF00F032F845
:102A60000020FFF756FFBF20FFF76CFF0D20FFF798
:102A700069FF3020FFF74DFF3A20FFF763FF612029
:102A8000FFF747FF0C480078FFF75CFF0B48007822
:102A9000FFF758FF0A480078FFF754FF8220FFF73E
:102AA00038FF2820FFF74EFF5020FFF732FF972016
:102AB000FFF748FF01BD0000BC010020BD01002060
:102AC000BE01002010B57120FFF723FF0421002074
:102AD000FFF72EFE0100C907C90F0120484004007E
:102AE0002000C0B20028EED1C820FFF765FE10BD5F
:102AF00080B5012023490870FFF799FA01BD012034
:102B0000214908707047F8B504216846FFF748FE70
:102B10001E4800906846FFF77FFA00201C490860B5
:102B20001C480078082101431A4801701A4800889F
:102B300001210143184801800C2101A8FFF730FE54
:102B400016480078012101431448017014480068B8
:102B500003210143124801600120694608710320E6
:102B600001A948700F480290012001A9087201A92B
:102B70000020FFF7B1F90C2101A8FFF711FE05B005
:102B800000BD0000C0010020C1010020F12A0000AA
:102B90000CA066420030034000360340083003407A
:102BA00010360340FF2A000080B500F01CF800F04A
:102BB0003BF8FFF78EFBFFF7A6FFFFF722FF184851
:102BC000FFF7FAFDFFF76DFBFFF779FB0A20FFF730
:102BD000F3FDFFF72FFC6420FFF7EEFDFFF774FB1A
:102BE000FFF766FBFEE738B584B0002400200D49EE
:102BF000088010216846FFF7D3FD00206946487021
:102C00000020694608706846FEF786F90500002036
:102C1000FEF7ACF80320FEF7A9FA05B030BD0000BE
:102C2000102700004000014080B5FFF7D9FAFFF7F8
:102C3000A2FE01BD70B40123002413E00168001D51
:102C4000194202D04D466D1E49190C60091D121F14
:102C5000042AFAD20D00960701D50C80AD1C1A404B
:102C600000D02C700268001D002AE7D170BC7047AC
:102C700030B501684118446862088A188368E4071F
:102C80000DD54C461B190AE00C7864B2491C0D782E
:102C9000491C1D705B1C002C05D5641CF9D19142A8
:102CA000F2D10C3030BD641EF1D5F8E7443A5C66D1
:102CB0006C79576F726B5C746F6B656E34535A54DA
:102CC0005C696E6D6967615C6472697665725C737C
:102CD00072635C636C6B2E6300000000443A5C66B8
:102CE0006C79576F726B5C746F6B656E34535A54AA
:102CF0005C696E6D6967615C6472697665725C734C
:102D000072635C6578696E742E630000443A5C6699
:102D10006C79576F726B5C746F6B656E34535A5479
:102D20005C696E6D6967615C6472697665725C731B
:102D300072635C6C76642E6300000000443A5C664B
:102D40006C79576F726B5C746F6B656E34535A5449
:102D50005C696E6D6967615C6472697665725C73EB
:102D600072635C7363692E6300000000443A5C6622
:102D70006C79576F726B5C746F6B656E34535A5419
:102D80005C696E6D6967615C6472697665725C73BB
:102D900072635C63742E630005480022874500D986
:102DA0000244044802600448804704480047000089
:102DB0000000002008ED00E0B11100003F2E0000EF
:102DC00010B5074979441831064C7C44163404E0A8
:102DD000081D0A68891888470100A142F8D110BD72
:102DE00008000000240000004DFEFFFFF800000076
:102DF000D00000200000000079FEFFFF9C000000D2
:102E0000FC0000000000002000F00DF8002801D0B8
:102E1000FFF7D6FF00BF00BF002000BF00BFFFF7D5
:102E2000C3FE00F002F80120704780B500F002F800
:102E300001BDFEE707463846FDF7E2FDFBE700BFB0
:102E400000BF00BF00BFFFF7DFFFFEE774657374CC
:102E500000000000746573740000000074657374F2
:102E600000000000746573740000000074657374E2
:102E70000000000080E00380080000000002E20083
:102E80001718010002040810FEE7FEE7FEE7FEE760
:102E9000FEE7FEE7FEE70000FB0002500240F40000
:102EA0000001FD000340500240F4000002FD000359
:102EB00080500240F4000003FD0003C0500240F4C3
:102EC000000004FC0002520240F4000005FD000373
:102ED00040520240F4000006FD000380520240F41C
:102EE000000007FD0003C0520240F30004093D004A
:102EF00000C0F90003A4000002FD000480E03F01CF
:102F00000EFD00113803FFF0F095FFFF6C696E793C
:062F100075616E003F0038
:0400000500002E3F8A
:00000001FF
