:1000000000110020BD41000003340000371C000037
:1000100000000000000000000000000000000000E0
:100020000000000000000000000000004733000056
:1000300000000000000000001744000023440000FE
:10004000333400003D340000473400007D4400009C
:10005000513400007F340000AF340000CB34000086
:10006000E53400001735000031350000633500002D
:100070007D3500007F44000081440000AF35000062
:10008000C9350000FB35000015360000473600007A
:10009000613600008344000085440000874400006E
:1000A00093360000CD360000F1360000FB3600002C
:1000B000894400008B4400008D4400000537000097
:1000C00000B50200D2B2002A09D0002211000A00B5
:1000D000D2B2022A01DA491CF9E7401EF1E700BD5D
:1000E00038B504000120FFF7EBFF00252800C0B25F
:1000F000082825DA00220221002001F00AF9012057
:10010000FFF7DEFF200605D501220121002001F0C6
:1001100000F904E000220121002001F0FAF8640057
:100120000120FFF7CDFF00BF00BF00BF0122022169
:10013000002001F0EEF80120FFF7C2FF6D1CD5E7AB
:1001400031BD10B504000120FFF7BAFF00220021E5
:10015000002001F0DEF800220621002001F0D9F88D
:100160002000C0B2FFF7BCFF01220021002001F0F7
:10017000D0F810BD10B504000120FFF7A1FF002248
:100180000021002001F0C5F801220621002001F025
:10019000C0F82000C0B2FFF7A3FF01220021002019
:1001A00001F0B7F810BD80B50020009000230122B7
:1001B0000121002001F07FF800200090002301229F
:1001C0000221002001F077F8002000900023012296
:1001D0000321002001F06FF800200090002301228D
:1001E0000521002001F067F8002000900023012283
:1001F0000621002001F05FF800200090002300227B
:100200000421002001F057F801BD80B5002205212E
:10021000002001F07EF8FA20800001F0CFF80122E2
:100220000521002001F075F8FA20800001F0C6F8E1
:1002300001BD80B598205B49087000205A490870BC
:1002400098205A490870FFF7E0FF0120FFF779FF77
:100250000320FFF78FFF0020FFF78CFF2B20FFF715
:1002600089FF2B20FFF786FF0320FFF783FF06207F
:10027000FFF767FF1720FFF77DFF1720FFF77AFFD3
:100280001720FFF777FF0420FFF75BFF00F090F8DF
:100290000020FFF756FFBF20FFF76CFF0D20FFF790
:1002A00069FF3020FFF74DFF3A20FFF763FF612021
:1002B000FFF747FF3B480078FFF75CFF3A480078BC
:1002C000FFF758FF39480078FFF754FF8220FFF707
:1002D00038FF2820FFF74EFF5020FFF732FF97200E
:1002E000FFF748FF01BD10B50400A04700F01AF861
:1002F0001220FFF726FF642001F060F800F058F8A4
:1003000010BD80B55020FFF71CFFF720FFF732FF2C
:100310000220FFF716FF0720FFF713FFA520FFF7C6
:1003200029FF01BD38B52020FFF70BFF00252C2D3C
:1003300005D22A48405DFFF71DFF6D1CF7E721201D
:10034000FFF7FFFE00242A2C05D22548005DFFF7A9
:1003500011FF641CF7E72220FFF7F3FE00252A2D8A
:1003600005D22048405DFFF705FF6D1CF7E723200D
:10037000FFF7E7FE00242A2C05D21B48005DFFF79B
:10038000F9FE641CF7E72420FFF7DBFE00252A2D89
:1003900005D21648405DFFF7EDFE6D1CF7E731BD55
:1003A00000000000F40C0020F50C0020F60C0020EA
:1003B00010B57120FFF7C5FE0421002000F0BAFF40
:1003C0000100C907C90F0120484004002000C0B245
:1003D0000028EED1C82000F0F1FF10BDE040000081
:1003E0000C410000384100006441000090410000D1
:1003F000FEB51020FFF7A5FE0024E448844204D295
:100400000020FFF7B7FE641CF7E7022000F0D6FFDC
:1004100008202023C5080026102E00D3D7E0002096
:10042000DB4A99191324614349190C189446D94A97
:1004300002217143515C62461155401CD44A9919FE
:100440001324614349190C189446D24A022171437E
:100450005118497862461155401CCD4A9919132408
:10046000614349190C189446CB4A02217143515CEF
:1004700062461155401CC64A991913246143491913
:100480000C189446C44A02217143511849786246B7
:100490001155401CBE4A99191324614349190C187F
:1004A0009446BE4A02217143515C62461155401C7C
:1004B000B74A99191324614349190C189446B74A4D
:1004C000022171435118497862461155401CB04AC7
:1004D00099191324614349190C189446B04A022112
:1004E0007143515C62461155401CA94A9919132465
:1004F000614349190C189446A94A022171435118C5
:10050000497862461155401CA1499A191324624347
:1005100052191218A34CA45D8C54401C9C4C991980
:100520001322514349190A1800929F498C469F494A
:100530000A7810214A4361468918895D009AA154BE
:10054000401C934C99191322514349190A180092DF
:1005500095498C4695494A7810214A436146891845
:10056000895D009AA154401C89499A191324624359
:10057000521912188B4CA45D8C54401C844C991950
:100580001322514349190A18009287498C4687491A
:10059000CA7810214A4361468918895D009AA1549E
:1005A000401C7B4C99191322514349190A18009297
:1005B0007D498C467D490A7910214A436146891854
:1005C000895D009AA154401C0700761C24E708218D
:1005D0003020C9080022102A00D3E9E000236C4D26
:1005E0008418132674436418E618AC46EE4D0224B2
:1005F00054432C5D6546AC555B1C654D8418132631
:1006000074436418E618AC46E74D022454432C1991
:1006100064786546AC555B1C5D4D841813267443A5
:100620006418E618AC465C4D022454432C5D6546C4
:10063000AC555B1C564D8418132674436418E61899
:10064000AC46554D022454432C1964786546AC558C
:100650005B1C4F4D8418132674436418E618AC468F
:100660004E4D022454432C5D6546AC555B1C484DF1
:100670008418132674436418E618AC46474D0224C8
:1006800054432C1964786546AC555B1C404D841866
:10069000132674436418E618AC46414D02245443B3
:1006A0002C5D6546AC555B1C394D8418132674438C
:1006B0006418E618AC463A4D022454432C19647869
:1006C0006546AC555B1C324C8518132675436D1876
:1006D000ED18344EB65C66555B1C2D4E8418132500
:1006E0006C436418E51800952F4CA446AF4C257850
:1006F0001024654364466419A45C009D74555B1C1A
:10070000234E841813256C436418E5180095264C75
:10071000A446A64C65781024654364466419A45C1D
:10072000009D74555B1C1A4C8518132675436D1873
:10073000ED181C4EB65C66555B1C154E84181325CF
:100740006C436418E5180095174CA446974CE5785F
:100750001024654364466419A45C009D74555B1CB9
:100760000B4E841813256C436418E51800950E4C45
:10077000A4468E4C25791024654364466419A45C14
:10078000009D74555B1C1F00521C24E7480B0000A1
:10079000A00000202C4200006C420000CC4200006F
:1007A000EC42000024440000AC3E0000BC0C0020E1
:1007B00008244023E4080025102D00D37CE100200C
:1007C000E24A59191326714309190E189446B54A7D
:1007D00002216943515C62469155401CDB4A59191C
:1007E0001326714309190E189446AE4A0221694333
:1007F0005118497862469155401CD44A591913261C
:10080000714309190E189446A74A02216943515CA5
:1008100062469155401CCD4A591913267143091956
:100820000E189446A04A022169435118497862463D
:100830009155401CC54A59191326714309190E18C0
:1008400094469A4A02216943515C62469155401C84
:10085000BE4A59191326714309190E189446934A32
:10086000022169435118497862469155401CB74AA4
:1008700059191326714309190E1894468C4A0221FE
:100880006943515C62469155401CB04A5919132680
:10089000714309190E189446854A0221694351187B
:1008A000497862469155401CA8495A19132672434B
:1008B00012191218D14E765D8E54401C7D4909786C
:1008C000002975D17B494978002938D1794989783F
:1008D000002911D19D4F59191322514309190E189E
:1008E000C7498C467349CA7810214A436146891822
:1008F000495DB955401C9FE0944F5919132251434B
:1009000009190E18BE498C466A498A7810214A4353
:1009100061468918495DB955401C8C4F59191322FD
:10092000514309190E18B6498C466249CA781021FC
:100930004A4361468918495DB955401C7CE0834FA4
:1009400059191322514309190E18AD498C465949BA
:100950004A7810214A4361468918495DB955401CBF
:100960007A4F59191322514309190E18A4498C467C
:1009700050498A7810214A4361468918495DB95522
:10098000401C724F59191322514309190E189C49E2
:100990008C464849CA7810214A4361468918495D06
:1009A000B955401C48E000BF4C420000C40C002078
:1009B000664F59191322514309190E1890498C4654
:1009C0003C490A7810214A4361468918495DB95566
:1009D000401C5E4F59191322514309190E188849BA
:1009E0008C4634494A7810214A4361468918495D4A
:1009F000B955401C554F59191322514309190E1866
:100A00007F498C462B498A7810214A4361468918D0
:100A1000495DB955401C4D4F5919132251430919CD
:100A20000E1877498C462349CA7810214A436146FB
:100A30008918495DB955401C44495A191326724317
:100A400012191218E74E02276F43F65D8E54401CB0
:100A50003E495A191326724312191218E14E022701
:100A60006F43F61976788E54401C38495A1913266C
:100A7000724312191218DC4E02276F43F65D8E5432
:100A8000401C32495A191326724312191218D64EB5
:100A900002276F43F61976788E5407007F1C6D1C71
:100AA0008AE600BF8C420000AC420000CC4200004D
:100AB000EC420000F00C002008215020C908002260
:100AC000102A00D39EE10023204D8418132674437E
:100AD0006418E618AC46C54D022454432C5D6546A7
:100AE000AC555B1C194D8418132674436418E61822
:100AF000AC46BE4D022454432C1964786546AC556F
:100B00005B1C124D8418132674436418E618AC4617
:100B1000B74D022454432C5D6546AC555B1C0B4D10
:100B20008418132674436418E618AC46B04D0224AA
:100B300054432C1964786546AC555B1C034C8518EE
:100B4000132675436D18ED182C4E01E0A00000200F
:100B5000B65C66555B1CA74C2478002C00D0C6E020
:100B6000A44C6478002C73D1A24CA478002C2CD116
:100B7000A14F841813256C436418E618204CA44632
:100B80009C4CE5781024654364466419A45CBC550C
:100B90005B1C994C8518132675436D18ED18974EFC
:100BA000B65C66555B1C944F841813256C4364181F
:100BB000E618134CA4468F4C6579102465436446AF
:100BC0006419A45CBC555B1CF0E08B4F84181325A2
:100BD0006C436418E6180A4CA446864CA578102489
:100BE000654364466419A45CBC555B1C824F841841
:100BF00013256C436418E618014C03E024440000FC
:100C0000AC3E0000A4467B4CE57810246543644666
:100C10006419A45CBC555B1C774C8518132675437E
:100C20006D18ED18754EB65C66555B1C724F8418D6
:100C300013256C436418E618714CA4466D4C657915
:100C40001024654364466419A45CBC555B1CADE08C
:100C5000694F841813256C436418E618684CA44641
:100C6000644C65781024654364466419A45CBC55E3
:100C70005B1C614F841813256C436418E618604CA4
:100C8000A4465C4CA5781024654364466419A45CB2
:100C9000BC555B1C584F841813256C436418E61828
:100CA000574CA446534CE5781024654364466419B8
:100CB000A45CBC555B1C504C8518132675436D18FD
:100CC000ED184E4EB65C66555B1C4B4F84181325D1
:100CD0006C436418E6184A4CA446464C65791024C7
:100CE000654364466419A45CBC555B1C5EE0424FDE
:100CF000841813256C436418E618414CA4463D4CF7
:100D000025781024654364466419A45CBC555B1CBB
:100D1000394F841813256C436418E618384CA446E0
:100D2000344C65781024654364466419A45CBC5552
:100D30005B1C314F841813256C436418E618304C43
:100D4000A4462C4CA5781024654364466419A45C21
:100D5000BC555B1C284F841813256C436418E61897
:100D6000274CA446234CE578102465436446641957
:100D7000A45CBC555B1C204C8518132675436D186C
:100D8000ED181E4EB65C66555B1C1B4F8418132570
:100D90006C436418E6181A4CA446164C6579102466
:100DA000654364466419A45CBC555B1C124C8518F1
:100DB000132675436D18ED18E44E02275743F65D70
:100DC00066555B1C0C4C8518132675436D18ED1881
:100DD000DE4E02275743F619767866551F007F1CB2
:100DE000521C6DE68C430000AC4300000C43000035
:100DF0002C430000CC0C0020A00000203444000054
:100E0000AC3E000008236024DD080026102E00D32D
:100E100086E10020CE4AA1191323594349190B1822
:100E20009446CC4A02217143515C6246D154401C25
:100E3000C74AA1191323594349190B189446C54AA7
:100E400002217143511849786246D154401CC04A6E
:100E5000A1191323594349190B189446BE4A02217C
:100E60007143515C6246D154401CB94AA119132305
:100E7000594349190B189446B74A02217143511836
:100E800049786246D154401CB149A21913235A43F0
:100E900052191218B14B9B5D8B54401CB049097814
:100EA000002900D0C1E0AE49497800296ED1AC4993
:100EB000897800292CD1A64FA11913225143491931
:100EC0000B18A8498C46A649CA7810214A436146A6
:100ED0008918895DF954401C9D49A21913235A436E
:100EE00052191218A04B9B5D8B54401C984FA119AE
:100EF0001322514349190B189A498C4698494A794B
:100F000010214A4361468918895DF954401CEBE081
:100F10008F4FA1191322514349190B1891498C463F
:100F20008F498A7810214A4361468918895DF954AE
:100F3000401C874FA1191322514349190B188949A5
:100F40008C468749CA7810214A4361468918895DD1
:100F5000F954401C7E49A21913235A4352191218FE
:100F6000814B9B5D8B54401C794FA1191322514337
:100F700049190B187B498C4679494A7910214A4313
:100F800061468918895DF954401CADE0704FA11984
:100F90001322514349190B1872498C4670494A78FB
:100FA00010214A4361468918895DF954401C684FF5
:100FB000A1191322514349190B186A498C466849F3
:100FC0008A7810214A4361468918895DF954401C8A
:100FD0005F4FA1191322514349190B1861498C46DF
:100FE0005F49CA7810214A4361468918895DF954DE
:100FF000401C5749A21913235A43521912185A4B2D
:101000009B5D8B54401C524FA11913225143491927
:101010000B1854498C4652494A7910214A4361467B
:101020008918895DF954401C5EE0494FA1191322CB
:10103000514349190B184B498C4649490A781021EC
:101040004A4361468918895DF954401C404FA119F3
:101050001322514349190B1842498C4640494A789A
:1010600010214A4361468918895DF954401C384F64
:10107000A1191322514349190B183A498C46384992
:101080008A7810214A4361468918895DF954401CC9
:101090002F4FA1191322514349190B1831498C467E
:1010A0002F49CA7810214A4361468918895DF9544D
:1010B000401C2749A21913235A43521912182A4BCC
:1010C0009B5D8B54401C224FA11913225143491997
:1010D0000B1824498C4622494A7910214A4361461B
:1010E0008918895DF954401C1949A21913235A43E0
:1010F00052191218154B02277743DB5D8B54401CA5
:101100001349A21913235A43521912180F4B0227DD
:101110007743DB195B788B5407007F1C761C75E6E0
:101120001320FFF70EF80020009000980F49884226
:1011300008D207480099405CFFF71CF80098401C53
:101140000090F2E7022000F039F9F7BDCC4300002F
:10115000A00000204C4300006C4300002444000029
:10116000D40C0020AC3E000034440000480B0000CA
:1011700030B5030000201C00E4B2002C08D10C00A4
:10118000E4B2002C04D11400E4B2734D2C6090E062
:101190001C00E4B2002C08D10C00E4B2012C04D1F4
:1011A0001400E4B26D4D2C6083E01C00E4B2002C0E
:1011B00008D10C00E4B2022C04D11400E4B2684D52
:1011C0002C6076E01C00E4B2002C08D10C00E4B2E4
:1011D000032C04D11400E4B2624D2C6069E01C00C1
:1011E000E4B2062C08D10C00E4B2002C04D11400A7
:1011F000E4B25D4D2C605CE01C00E4B2062C08D12A
:101200000C00E4B2012C04D11400E4B2574D2C6060
:101210004FE01C00E4B2062C08D10C00E4B2022C12
:1012200004D11400E4B2524D2C6042E01C00E4B240
:10123000062C08D10C00E4B2032C04D11400E4B253
:101240004C4D2C6035E01C00E4B2052C08D10C009C
:10125000E4B2002C04D11400E4B2474D2C6028E025
:101260001C00E4B2052C08D10C00E4B2012C04D11E
:101270001400E4B2414D2C601BE01C00E4B2052CCC
:1012800008D10C00E4B2022C04D11400E4B23C4DAD
:101290002C600EE01C00E4B2052C08D10C00E4B276
:1012A000032C04D11400E4B2364D2C6001E0042478
:1012B0002000C0B230BDFEB505000C001700089E2E
:1012C0000020009000222100C9B22800C0B2FFF720
:1012D0004FFF2800C0B2C0012100C9B289004118E7
:1012E0000020294A8A1810603800C0B2274A8A189C
:1012F00010606846007A264A8A1810603000C0B232
:10130000244A8A1810600020234A8A18106000209E
:10131000FEBD30B40300DBB2802463430C00E4B2B2
:1013200004256C431B191400E4B21C4D5D192C609C
:1013300030BC704710B402001000C0B28023584384
:101340000B00DBB204246343C018154BC0180068BF
:10135000C0B210BC7047000000A0664204A0664204
:1013600008A066420CA0664210A0664214A0664225
:1013700018A066421CA0664220A0664224A06642D5
:1013800028A066422CA066420000664200406642E9
:101390000020664200E0664200206742008066420C
:1013A0000060664200B50200002A06D0002904D081
:1013B000491E00231370521CF8E700BD38B5040025
:1013C00000200090002500F045FA074900F0DCFB02
:1013D000002C08D0641E009000990029F8D00099D4
:1013E000491E0091F8E731BDA086010000B501005B
:1013F00049B2002905D40121C206D20E9140664AA5
:10140000116000BD00B5010049B2002905D40121D9
:10141000C206D20E9140614A116000BDF0B50200D3
:1014200052B2002A1DD45E4A03005BB29B0804241A
:101430006343D258FF238407A40F08256C43A340BD
:101440009A438B01DBB28407A40F08256C43A340A9
:101450001343534A040064B2A40804256C43135197
:1014600022E0504A03005BB21B071B0F083B9D089C
:1014700004235D434B4B040064B22407240F083C53
:10148000A408042674431B59FF248607B60F0827B7
:101490007E43B440A3438C01E4B28607B60F08270D
:1014A0007E43B4401C435451F0BD80B51820FFF773
:1014B000A9FF1820FFF79AFF03211820FFF7AEFFBE
:1014C00001BD00B538480078C006C00E3649087026
:1014D000364800780100C907C90F0029F8D000205C
:1014E00000BD80B50121012000F0AAFA2F48007844
:1014F0000100C9B249090800C0B2042803D008009D
:10150000C0B2052811D128480078C006C00E20229C
:1015100002432548027025480078C0B24008020006
:10152000D207D20F002A11D1F5E720480078C0B2C7
:1015300040080200D207D20F002AF6D01A480078DD
:10154000C006C00E2022024317480270002002BDD0
:1015500015480078C006C00E802101431248017072
:101560000020704700B510480078082101430E485C
:1015700001700E480078C0B2C0080100C907C90F49
:101580000029F6D008480078C006C00EA02101430B
:1015900005480170002000BD00E100E080E200E0AD
:1015A00000E400E01CED00E0000001400400014008
:1015B00070B505000C0000262800C0B200280FD02E
:1015C0002800C0B201280BD02800C0B2022807D0E2
:1015D0002800C0B2032803D02800C0B2042801D1DB
:1015E000012000E00020C0B2002807D1FF226A32AB
:1015F0002F49304800F020FB00BF00BF2100C90781
:10160000C90F2800C0B2002806D002280FD024D36A
:10161000042817D02CD336E0A7480078DF220240F8
:101620004801202318401043A34A10702DE0A2481F
:101630000078EF22024008011023184010439E4A10
:10164000107022E09C480078FE2202400800C0078B
:10165000C00F1043984A107017E097480078EF22A7
:1016600002400801102318401043934A10700CE008
:1016700091480078FD2202404800022318401043A0
:101680008D4A107001E0042006003000C0B270BD29
:1016900010B5040089480068002802D08748006817
:1016A000804787480078012101438548017010BDBB
:1016B000F43F00005044000010B504008148007859
:1016C000C0B240090100C907C90F00290CD07E48EB
:1016D0000068002802D07C4800688047784800787D
:1016E000202101437648017076480078C0B2C008D6
:1016F0000100C907C90F00290CD0744800680028F0
:1017000002D07248006880476D4800780821014384
:101710006B4801706B480078C0B200090100C9072E
:10172000C90F00290CD06A480068002802D0684818
:1017300000688047624800781021014360480170CA
:1017400010BD0000F8B50400002700250020694600
:1017500008702000C0B2002806D0012807D0042855
:1017600008D0052809D00BE0FFF7ABFE0AE0FFF731
:10177000B8FE07E0FFF7ECFE04E0FFF7F3FE01E040
:10178000042020E0534E684653490978C9B24909FC
:101790004170002E0CD0761E50480078C0B240092F
:1017A0006946087068464078694609788842F0D1F1
:1017B00000F061FA6846407869460978884201D1AC
:1017C000002000E00120F2BD38B505000024684685
:1017D00043490A6802602800C0B200280BD02800E4
:1017E000C0B2012807D02800C0B2042803D02800C6
:1017F000C0B2052801D1012000E00020C0B20028BD
:1018000006D1384A3849394800F016FA00BF00BFFF
:101810002800C0B2002806D001280ED004280FD01E
:10182000052811D014E06846824909788907890F94
:10183000405C2849484304000AE07F48040007E070
:10184000FA20C001040003E0802000020400FFE74A
:10185000200032BDF8B5002400252048007806009D
:10186000F6B276093000C0B2FFF7AEFF73490978CF
:101870004F077F0F3900C9B2002909D002290AD0C9
:1018800007D304290DD00AD3062910D00DD310E0B8
:101890000FE040080DE0032100F076F909E0800830
:1018A00007E0062100F070F903E0C00801E000093C
:1018B000FFE79A490860F2BD60000140E00C00209B
:1018C0006800014064000140DC0C0020E40C0020B2
:1018D000E80C002040420F000000014004000140DD
:1018E0007844000023020000F43F00005044000050
:1018F00010B50400002C01D0012000E00020C0B28F
:10190000002806D1874A8949894800F095F900BF27
:1019100000BF2078072801DA012000E00020C0B2D3
:10192000002806D1834A8149814800F085F900BF2B
:1019300000BF6078042801DA012000E00020C0B276
:10194000002806D17C4A7949794800F075F900BF32
:1019500000BFA078042801DA012000E00020C0B216
:10196000002807D1AF2292007049714800F064F955
:1019700000BF00BF207831490978F8220A404007AB
:10198000400F10432D490870607865490978FC22A2
:101990000A408007800F104361490870A0786249AF
:1019A0000978FC220A408007800F10435E490870C6
:1019B000E0780007000F61490978F0220A4000072B
:1019C000000F10435D49087020790007000F5B4944
:1019D00009780907090F0001084358490870607920
:1019E00001280CD1A068564908606148007801219F
:1019F00001435F48017001210420FFF7D9FDA07960
:101A000001280CD1A0684E4908605948007802218D
:101A100001435748017001210320FFF7C9FDA07958
:101A2000012802D06079012801D1FFF73EFD002096
:101A300010BD00000CE002400048E8011000014029
:101A400070B505000C0000262800C0B200280BD09D
:101A50002800C0B2012807D02800C0B2042803D053
:101A60002800C0B2052801D1012000E00020C0B24A
:101A7000002807D1C22292002C492D4800F0DCF842
:101A800000BF00BF2100C907C90F2800C0B200284D
:101A900004D001280DD0052830D03AE0374800782E
:101AA000FE2202400800C007C00F1043334A1070E6
:101AB00031E030480078012202432E4802702E485F
:101AC0000068302290432C4A10602B480068302276
:101AD00090431022024328480260294800680322EC
:101AE00002432748026025480078FD220240480052
:101AF000022318401043214A10700CE01F48007860
:101B0000F7220240C8000823184010431B4A1070F7
:101B100001E0042006003000C0B270BDE80B0020D8
:101B200014000140B902000018000140F43F000019
:101B300050440000BA020000BB0200003000014027
:101B4000E00C002000B5010000200A00D2B2002AFB
:101B5000032A09D80B4A1278FC2313408A07920FF4
:101B60001A43084B1A7001E004221000C0B200BDF5
:101B70006000014030500340100000400000014070
:101B800020E002400CE002400022030A8B420BD20C
:101B900003098B4219D243088B422ED2411A00D23C
:101BA0000146524110467047FF2209023FD01206FB
:101BB0008B4205D3121209028B4201D31212090281
:101BC00003098B4219D300E0090AC3098B4201D3F0
:101BD000CB01C01A524183098B4201D38B01C01A39
:101BE000524143098B4201D34B01C01A52410309B0
:101BF0008B4201D30B01C01A5241C3088B4201D35F
:101C0000CB00C01A524183088B4201D38B00C01A0B
:101C1000524143088B4201D34B00C01A52418842C3
:101C200000D3401A5241CFD201461046704708B542
:101C300000F032F808BDFEE700B583B000910192D4
:101C400002906A4604491820ABBE002801D100F07A
:101C500024F803B000BD00BF1010020080B5094891
:101C600009490860094808490860002008490870C7
:101C700000F001F801BD80B5FFF7ECFD05490860F3
:101C800001BD000051E5CC1A14100140AE1A33E535
:101C900008100140E80B0020704780B5012000F0DB
:101CA00001F801BD80B500BF00BF024A1100182035
:101CB000ABBEFBE72600020000B5010049B20029D7
:101CC00005D40121C206D20E91409C4A116000BD8C
:101CD00000B5010049B2002905D40121C206D20E87
:101CE0009140974A116000BDF0B5020052B2002A3F
:101CF0001DD4944A03005BB29B0804246343D2586A
:101D0000FF238407A40F08256C43A3409A438B014B
:101D1000DBB28407A40F08256C43A3401343894A10
:101D2000040064B2A40804256C43135122E0864ADF
:101D300003005BB21B071B0F083B9D0804235D4398
:101D4000814B040064B22407240F083CA408042635
:101D500074431B59FF248607B60F08277E43B440FF
:101D6000A3438C01E4B28607B60F08277E43B44034
:101D70001C435451F0BD80B51B20FFF7A9FF1B2069
:101D8000FFF79AFF03211B20FFF7AEFF01BD80B5CF
:101D90006E480078C0B280080100C907C90F002949
:101DA00008D16A480078C0B2C0080100C907C90F4D
:101DB000002906D066480068002802D06448006800
:101DC0008047624800780100C907C90F002908D17F
:101DD0005E480078C0B240080100C907C90F002959
:101DE00006D05B484068002802D0594840688047C8
:101DF00056480078C0B200090100C907C90F002980
:101E00000CD052480078EF210140504801705048F2
:101E10008068002802D04E48806880474D4800788E
:101E20000100C907C90F00290CD04A480078FE21DB
:101E30000140484801704648C068002802D0444824
:101E4000C068804701BD10B504002000C0B204285E
:101E500001DA012000E00020C0B2002806D1BF2234
:101E60003D493E48FFF7E8FE00BF00BF2000C0B27A
:101E7000002805D0022811D009D3032815D01BE073
:101E8000B048007804210143AE48017016E0AD4827
:101E9000007804210143AB4801700FE0A9480078A5
:101EA00002210143A748017008E0A64800780121FB
:101EB0000143A448017001E0042000E0002010BDAF
:101EC00010B504002000C0B2042801DA012000E0AF
:101ED0000020C0B2002806D1E6221F491F48FFF7A4
:101EE000ABFE00BF00BF2000C0B2002805D0022812
:101EF00011D009D3032815D01BE092480078FB21AC
:101F000001409048017016E08E480078FB210140A6
:101F10008C4801700FE08B480078FD210140894812
:101F2000017008E087480078FE2101408548017073
:101F300001E0042000E0002010BD000000E100E00E
:101F400080E200E000E400E01CED00E008C803408F
:101F5000AC0C002030C803408440000070440000F6
:101F600070B504008C4806788C48057820780028E5
:101F700002D02078012801D1012000E00020C0B269
:101F8000002807D18722520089498A48FFF754FE6A
:101F900000BF00BF2079012802D02079002801D19C
:101FA000012000E00020C0B2002807D1FF2210323B
:101FB0007F498048FFF740FE00BF00BF60790028DE
:101FC00002D06079012801D1012000E00020C0B2D8
:101FD000002807D18822520075497648FFF72CFE69
:101FE00000BF00BFA079002802D0A079012801D14C
:101FF000012000E00020C0B2002807D1FF221232E9
:102000006B496C48FFF718FE00BF00BFE07901285C
:1020100002D0E079002801D1012000E00020C0B208
:10202000002807D18922520061496248FFF704FE67
:1020300000BF00BF2078012803D1012030430600F3
:1020400002E0FE20304006006088002802D0608850
:1020500000F0B2F8207901281BD1042028436179CF
:10206000012902D1310002260E436179002902D1F3
:102070003100FD260E40E179012907D108250543ED
:10208000207AF106C90E46010E4305E0F72505400A
:1020900002E0FB2028400500A079002802D1300092
:1020A000FB260640A079012802D130000426064311
:1020B0007148057071480670E068002827D0E06814
:1020C0000078012805D11F480078042101431D48EC
:1020D0000170E0684078012805D11A480078042191
:1020E000014318480170E0688078012805D115483F
:1020F00000780221014313480170E068C07801288C
:1021000005D110480078012101430E480170206973
:1021100000280FD020690068714908602069406874
:102120006F494860206980686D4988602069C0688F
:102130006B49C860207D012801D1FFF71CFE0020FB
:1021400070BD00002CC803404B48007801210143BA
:10215000494801700020704710B504002000C0B24B
:10216000042801DA012000E00020C0B2002807D1D5
:10217000E72252000E490F48FFF75EFD00BF00BF87
:1021800058480078E7210140E000182202400A4345
:1021900054480270002010BD8E4400008F4400009F
:1021A00050480078042101434E48017000207047D8
:1021B000844000007044000001004B480088C022A9
:1021C000120202408804800C1043474A108000200D
:1021D00070470020B44908700020704738B50500EA
:1021E00000242800C0B2052801DA012000E0002008
:1021F000C0B2002807D18C22920088498848FFF796
:102200001BFD00BF00BF2800C0B2002806D0022876
:1022100013D009D3042822D018D329E0A24800788B
:10222000C0B2C009040023E09F480078C0B2800912
:102230000100C907C90F0C001AE09B480078C0B222
:1022400040090100C907C90F0C0011E09648007849
:10225000C0B2C0080100C907C90F0C0008E09248CD
:102260000078C0B240080100C907C90F0C00FFE7A1
:102270002000C0B232BD000000C8034004C80340C3
:1022800010B504002000C0B2052801DA012000E0EA
:102290000020C0B2002806D1844A60496048FFF798
:1022A000CBFC00BF00BF2000C0B20028022804D928
:1022B000C01E03D0401E08D00EE00FE07A48007820
:1022C000F72101407848017008E077480078FD2147
:1022D00001407548017001E0042000E0002010BDBD
:1022E000AC0C002028C803401CC8034038B50500CA
:1022F00000242800C0B2082801DA012000E00020F4
:10230000C0B2002806D1984A44494548FFF794FCDA
:1023100000BF00BF2800C0B200280BD0022818D090
:102320000ED3042827D01DD3062836D02CD3072857
:102330003CD042E099480078C0B2C00904003CE0BB
:1023400096480078C0B280090100C907C90F0C0087
:1023500033E092480078C0B240090100C907C90FB4
:102360000C002AE08D480078C0B200090100C907BE
:10237000C90F0C0021E089480078C0B2C0080100F4
:10238000C907C90F0C0018E084480078C0B2800863
:102390000100C907C90F0C000FE080480078C0B2E7
:1023A00040080100C907C90F0C0006E07B4800780F
:1023B0000100C907C90F0C00FFE72000C0B232BD01
:1023C00010B504002000C0B2082801DA012000E0A6
:1023D0000020C0B2002806D1714A10491048FFF70A
:1023E0002BFC00BF00BF2000C0B20028032803D987
:1023F000001F032807D90DE06A48007880210143B7
:102400006848017008E0674800784021014365484A
:10241000017001E0042000E0002010BD84400000B5
:102420007044000038B5050000242800C0B204281C
:1024300001DA012000E00020C0B2002807D1C1224B
:10244000920059495948FFF7F7FB00BF00BF280029
:10245000C0B2002805D0022813D00BD3032819D00E
:102460001FE011480078C0B280080100C907C90FF9
:102470000C0016E00C4800780100C907C90F0C00D9
:102480000FE009480078C0B200090100C907C90F70
:102490000C0006E0464800780100C907C90F0C008F
:1024A000FFE72000C0B232BD08C803405E02000052
:1024B00010B504002000C0B2042801DA012000E0B9
:1024C0000020C0B2002806D13A4A37493748FFF702
:1024D000B3FB00BF00BF2000C0B2002805D0022817
:1024E00011D009D3032815D01BE033480078FB2115
:1024F00001403148017016E02F480078FE2101406C
:102500002D4801700FE02C480078EF2101402A4847
:10251000017008E026480078FE210140244801703F
:1025200001E0042000E0002010BD010023480170FC
:102530000020704721480078C0B2704719480078E1
:10254000802101431748017000207047154800782A
:10255000402101431348017000207047184800785B
:10256000C0B20009704700009902000015480078C9
:102570000221014313480170002070471148007880
:10258000FD2101400F480170002070470D48007880
:10259000012101430B480170002070470CC8034023
:1025A000D202000000C803408440000070440000D4
:1025B00030C803402D03000008C8034014C803407E
:1025C00010C8034028C8034000B5010049B20029E3
:1025D00005D40121C206D20E9140924A116000BD7D
:1025E00000B5010049B2002905D40121C206D20E6E
:1025F00091408D4A116000BDF0B5020052B2002A30
:102600001DD48A4A03005BB29B0804246343D2585A
:10261000FF238407A40F08256C43A3409A438B0132
:10262000DBB28407A40F08256C43A34013437F4A01
:10263000040064B2A40804256C43135122E0BE4A8E
:1026400003005BB21B071B0F083B9D0804235D437F
:10265000B94B040064B22407240F083CA4080426E4
:1026600074431B59FF248607B60F08277E43B440E6
:10267000A3438C01E4B28607B60F08277E43B4401B
:102680001C435451F0BD10B504002000C0B2002816
:102690000BD02000C0B2012807D02000C0B2022811
:1026A00003D02000C0B2032801D1012000E00020A7
:1026B000C0B2002806D19B22A049A148FFF7BCFA6E
:1026C00000BF00BF2000C0B29E492200D2B2142336
:1026D0005A438958884205D19A48E4B214214C43A0
:1026E000001900E0002010BD80B51F20FFF778FF23
:1026F0001F20FFF769FF03211F20FFF77DFF01BDAA
:10270000F8B5040000206946087000270025200065
:10271000C0B200280BD02000C0B2012807D0200092
:10272000C0B2022803D02000C0B2032801D101208A
:1027300000E00020C0B2002806D1CF227F498048A7
:10274000FFF77AFA00BF00BF2000C0B2FFF79BFF7F
:102750000600002E24D068467168097C01707068FC
:1027600020214843784945186846007822210140D5
:10277000222908D100212800001D0160F0680028EE
:1027800001D0F06880476846007811210140112986
:1027900006D100202860B068002801D0B0688047CA
:1027A000F1BDF8B505000020694608700024002737
:1027B0002800C0B200280BD02800C0B2012807D0E2
:1027C0002800C0B2022803D02800C0B2032801D1DB
:1027D000012000E00020C0B2002807D1FF220A3209
:1027E00056495748FFF728FA00BF00BF2800C0B27B
:1027F000FFF749FF0600002E12D07068077C7807AB
:102800000ED57068202148434F494018040000212C
:102810002000083001603069002801D0306980470D
:10282000F1BD000000E100E080E200E000E400E033
:1028300038B504000D002000C0B2082801DA0120DC
:1028400000E00020C0B2002807D1FF2246323B49F9
:102850003B48FFF7F1F900BF00BF2800C0B20928CC
:1028600001DA012000E00020C0B2002807D1A32235
:10287000520032493248FFF7DFF900BF00BF2000A5
:10288000C0B2FFF700FF0100002901D1042051E090
:102890002000C0B2002803D02000C0B201280DD112
:1028A0002A4800882A4A02402800C0B20002F023C9
:1028B0001B0103401343254803803AE02000C0B2C7
:1028C000022803D02000C0B203280AD11F48008884
:1028D0000005000D2A00D2B2120302431B480280F9
:1028E00027E02000C0B2042803D02000C0B2052891
:1028F0000DD118480088164A02402800C0B20002D4
:10290000F0231B01034013431248038011E0200011
:10291000C0B2062803D02000C0B2072809D10D4854
:1029200000880005000D2A00D2B2120302430948B4
:102930000280002032BD00001CED00E0B440000029
:1029400058440000000000200002004200510240F4
:10295000FFF0000000530240F1B582B00C000020EF
:1029600001900026002C01D0012000E00020C0B220
:10297000002806D1974A98499948FFF75DF900BFAA
:1029800000BF6846007A082801DA012000E0002034
:10299000C0B2002806D1914A8F499148FFF74CF9FF
:1029A00000BF00BF20780B2801DA012000E00020E2
:1029B000C0B2002807D1CD22D20087498848FFF74E
:1029C0003BF900BF00BF6078022801DA012000E077
:1029D0000020C0B2002806D1824A7F498048FFF714
:1029E0002BF900BF00BFE078022801DA012000E0E7
:1029F0000020C0B2002806D18E4A77497848FFF7F8
:102A00001BF900BF00BFA078062801DA012000E012
:102A10000020C0B2002806D1874A6F497048FFF7EE
:102A20000BF900BF00BF2079022801DA012000E085
:102A30000020C0B2002806D1804A67496848FFF7E5
:102A4000FBF800BF00BF6846007AFFF71CFE0500D8
:102A5000002D01D10420BCE06E68B0898B49014093
:102A6000B181B0898949014030200843B08127787D
:102A700020780028072803D9083802280ED91BE03F
:102A8000707CFE2101407174B08981490140380396
:102A9000E022D20102400A43B2810FE0707C0121A2
:102AA00001437174B0897A4901403803E022D201B0
:102AB00002400A43B28101E004208AE060780028E5
:102AC00002D0012805D009E0B08985490140B181D3
:102AD00006E0B08980210143B18101E0042078E063
:102AE000E078002802D0012805D009E0B0898F499C
:102AF0000140B18106E0B08908210143B18101E0C4
:102B0000042066E06846A1780180A07800280328A8
:102B100004D9001F12D0401E19D024E0707C40065A
:102B2000400E7074B18982480840694609880902DC
:102B3000C02292000A400243B28116E0707C8021DC
:102B400001437174B0897A490140B1810DE0707C14
:102B5000802101437174B089754901408020400093
:102B60000843B08101E0042033E02079002802D03E
:102B7000012805D009E0B0896E490140B18106E025
:102B8000B08904210143B18101E0042021E0A06863
:102B900000280FD0A0680078012803D1307C4021A4
:102BA00001433174A0684078012803D1307C1021A2
:102BB00001433174E068002805D0E06800682861AE
:102BC000E0684068A860207C012801D1FFF78CFDF7
:102BD0000020FEBD66060000B4400000670600004D
:102BE000584400006906000070B504000026002566
:102BF0002000C0B2082801DA012000E00020C0B2A5
:102C0000002806D14D4A4C494D48FFF715F800BF42
:102C100000BF2000C0B2FFF736FD0200002A01D13C
:102C2000042005E051688889022303438B8100203A
:102C300070BD00006A0600006B0600006C06000014
:102C400070B50400002600252000C0B2082801DA73
:102C5000012000E00020C0B2002806D1394A3649E0
:102C60003748FEF7E9FF00BF00BF2000C0B2FFF702
:102C70000AFD0200002A01D1042005E0516888897C
:102C8000324B03408B81002070BD00008FFF00009D
:102C9000FF8F000070B50400002600252000C0B2A0
:102CA000082801DA012000E00020C0B2002806D187
:102CB000254A21492248FEF7BFFF00BF00BF200080
:102CC000C0B2FFF7E0FC0200002A01D1042005E0B9
:102CD00051688889012303438B81002070BD000067
:102CE0007FFF0000F8B504000D000027002620003B
:102CF000C0B2082801DA012000E00020C0B200289C
:102D000006D1134A0C490E48FEF796FF00BF00BFDC
:102D10002000C0B2FFF7B7FC0200002A01D1042056
:102D200002E051680D800020F2BD0000F7FF0000B6
:102D3000FFFC0000FBFF0000B44000003107000072
:102D4000584400005207000073070000FDFF000018
:102D50009507000010B50120FFF764FB00280ED096
:102D60000120FFF7A5FB9B4804782000401C9949EF
:102D70000870FFF7DFFB9849E4B20855EBE7042041
:102D8000FFF72CFA002803D00420FFF779FAF6E7C2
:102D900010BD80B50020FFF745FB002803D00020C0
:102DA000FFF786FBF6E70320FFF718FA00280AD0A2
:102DB00001208A4908700320FFF762FAFFF7CEFB73
:102DC00087490870EFE701208649087001BD80B58A
:102DD00000208549088085480078202101438348E8
:102DE00001708248007808210143804801707F48C3
:102DF0000078102101437D4801707D4800887D499D
:102E00000140802080000843794908807848008884
:102E100079490140802000010843754908807448C1
:102E2000008876490140802080010843704908806D
:102E3000002000900023012206210320FEF73BFA28
:102E4000002206210320FEF764FA01BD80B50122AD
:102E500006210320FEF75DFA01BD80B500220621A0
:102E60000320FEF756FA01BD80B50120FEF7EBFF07
:102E700001BD80B50120FFF723F801BD80B58AB000
:102E800018216846FEF78EFA102106A8FEF78AFA86
:102E90005B4807905B480690002069460870BA209E
:102EA0004000694648800120694608710020694653
:102EB0004871012069460875002069468871012023
:102EC0000399487000206946087206A80490684675
:102ED000FFF746F80220FFF73FF9FFF761F9FFF728
:102EE00055FBFFF776F9FFF729FBFFF72FFBFFF7FD
:102EF000ADFFFFF729F9FFF741FB6420FEF75EFA0B
:102F0000FFF734FBFA208000FEF758FAFFF7A5FF21
:102F1000FFF75FF90020FFF7CBFA0120FFF7C8FAAF
:102F20000220FFF7C5FA0320FFF7C2FAFFF706FBFE
:102F3000FFF70CFB0BB000BD70B505000C000026C0
:102F400030002900C0B2C9B2884218D325480078A1
:102F50000028FBD000202349087020480078002872
:102F60000CD000201D490870FFF7E8FA761C1C48B9
:102F70000078361A00201A49087000E028E0022084
:102F8000FFF7B4F900281CD00220FFF719FA154802
:102F900000780028FBD00020124908700F48007804
:102FA00000280CD000200D490870FFF7C7FA761CE6
:102FB0000B480078361A002009490870C0E7761CD3
:102FC000BEE73000C0B2205CFFF7AFFA761CB7E76F
:102FD00070BD0000FA0C00206C0C0020FB0C0020DF
:102FE000FD0C0020FC0C002000350340183003408D
:102FF00024360340FFFC0000FFF30000FFCF000079
:10300000552D0000932D000010B5040000208F49BD
:1030100008708F490520FFF78FFF00208D49087049
:10302000FA20800000F030F988480078002804D1A8
:10303000884800780028F7D006E100F07FF986483C
:103040000078A4280ED100208049087083490E2002
:10305000FFF772FF00207F490870FA20800000F01F
:1030600013F900E0F0E079480078022804DA7948A2
:1030700000780028F7D0E7E000F060F976480078A3
:10308000902812D17448407800280ED100206F4952
:10309000087073490520FFF74FFF00206D49087045
:1030A000FA20800000F0F0F800E0CDE067480078FA
:1030B000002804D1674800780028F7D0C4E000F069
:1030C0003DF965480078A4280ED100205F490870BA
:1030D00064490220FFF730FF00205E490870FA20A3
:1030E000800000F0D1F800E0AEE0584800780228F7
:1030F00004DA584800780028F7D0A5E000F01EF95F
:1031000055480078612812D15348407856490871D3
:1031100000204E49087054490520FFF70DFF00209C
:103120004C490870FA20800000F0AEF800E08BE017
:1031300046480078372804DA464800780028F7D057
:1031400082E000F0FBF84948007890280AD148480E
:103150000078002806D100203C4908704549052028
:10316000FFF7EAFE39480078002804D13948007892
:103170000028F7D068E000F0E1F837480078A4288C
:103180000ED10020314908703B490220FFF7D4FEE0
:10319000002030490870FA20800000F075F800E047
:1031A00052E02A480078022804DA2A4800780028E9
:1031B000F7D049E000F0C2F827480078612812D122
:1031C0002548407828490871002020490870264980
:1031D0000520FFF7B1FE00201E490870FA2080008C
:1031E00000F052F800E02FE0184800780B2804DACD
:1031F000184800780028F7D026E000F09FF816481D
:10320000407A902814D11448807A002810D10020E8
:103210000E4908701948847018490520FFF78CFE84
:1032200000200C490870FA20800000F02DF800E022
:103230000AE006480078172804DA064800780028D3
:10324000F7D001E000F07AF810BD0000FA0C002081
:10325000F40B0020F70C00206C0C0020FC0B00206D
:103260000C0C0020240C0020EC0B0020A10C0020F2
:10327000A20C0020140C0020260C00201C0C0020A6
:1032800001202A490870704710B588B00400022157
:103290006846FEF787F8082106A8FEF783F8142190
:1032A00001A8FEF77FF800210020FFF7C1FA2048AF
:1032B0000078012101431E4801701E4800680C215E
:1032C0008843082101431B4801606846039006A813
:1032D0000490002069460871002001A9487001206F
:1032E00001A90871002001A98870002001A9C870F7
:1032F0000020039908700120039948700E48049932
:103300004860012001A9087401A90020FFF724FBEF
:10331000210089B20020FFF7E5FC0020FFF764FCE4
:103320000020FFF7B7FC08B010BD0000F70C00202C
:1033300008300340083603408132000080B5002089
:10334000FFF77EFC01BDFEE738B505000C0020004C
:10335000C0B2002806D0012809D0022808D00428CD
:103360000BD00FE02800C0B200BF00BF0AE009E0A8
:103370002800C0B200BF00BF04E02800C0B200BFF8
:1033800000BFFFE731BD38B505000C002000C0B21A
:10339000002806D0012809D0022808D004280BD024
:1033A0000FE02800C0B200BF00BF0AE009E028001B
:1033B000C0B200BF00BF04E02800C0B200BF00BF21
:1033C000FFE731BD38B505000C002000C0B2002871
:1033D00006D0012809D0022808D004280BD00FE01D
:1033E0002800C0B200BF00BF0AE009E02800C0B258
:1033F00000BF00BF04E02800C0B200BF00BFFFE76D
:1034000031BD10B50020B8490C682100C9B20A00CE
:10341000D207D20F012A02DB002000F070FA200050
:10342000C0B202210840012802DB002000BF00BF1B
:1034300010BD80B50020FEF73FF901BD80B500202A
:1034400000BF00BF01BD80B5002000BF00BF01BDAF
:1034500038B500200021A54A146800252800C0B214
:1034600008280BDA0120A8402100C9B2014203D08C
:103470002800C0B200F0E9F96D1CEFE731BD38B5A6
:1034800000200021B04A146800252800C0B2082896
:103490000CDA0120A8402100C9B2014204D0280062
:1034A0000830C0B200F0FEF96D1CEEE731BD10B57A
:1034B000A6480468E00702D5012000BF00BFA007AE
:1034C00002D5022000BF00BF10BD38B50025A048BE
:1034D00000780400E4B264092100C9B20020FFF7BB
:1034E00033FF31BD38B500200021994A127814000D
:1034F000E4B26409974A1568AA0704D52100C9B245
:103500000020FFF75FFFE80704D52100C9B20020C3
:10351000FFF739FF31BD38B500258F48007804002A
:10352000E4B264092100C9B20120FFF70DFF31BDEB
:1035300038B500200021884A12781400E4B26409EA
:10354000864A1568AA0704D52100C9B20120FFF7F1
:1035500039FFE80704D52100C9B20120FFF713FFA6
:1035600031BD38B500257E4800780400E4B2640916
:103570002100C9B20220FFF7E7FE31BD38B50020B7
:103580000021774A12781400E4B26409754A15687C
:10359000AA0704D52100C9B20220FFF713FFE807EC
:1035A00004D52100C9B20220FFF7EDFE31BD38B5C8
:1035B00000256D4800780400E4B264092100C9B216
:1035C0000420FFF7C1FE31BD38B500200021664A56
:1035D00012781400E4B26409644A1568AA0704D595
:1035E0002100C9B20420FFF7EDFEE80704D5210051
:1035F000C9B20420FFF7C7FE31BD38B500255C48CD
:1036000000780400E4B264092100C9B20520FFF784
:103610009BFE31BD38B500200021554A12781400B8
:10362000E4B26409534A1568AA0704D52100C9B257
:103630000520FFF7C7FEE80704D52100C9B2052021
:10364000FFF7A1FE31BD38B500254B4800780400D6
:10365000E4B264092100C9B20620FFF775FE31BD4E
:1036600038B500200021444A12781400E4B26409FD
:10367000424A1568AA0704D52100C9B20620FFF7FF
:10368000A1FEE80704D52100C9B20620FFF77BFEA2
:1036900031BD10B53A480468E00702D50020FDF7B7
:1036A000F7FFA00702D50020FDF7F2FFA00602D524
:1036B000012000BF00BF600602D5002000BF00BF90
:1036C000200602D5002000BF00BF10BD10B52D4858
:1036D0000468E00702D5002000BF00BFE00602D565
:1036E000002000BF00BF10BD101003402410034095
:1036F00080B5002000BF00BF01BD80B50020FEF7EF
:1037000046FB01BD38B500201F490C680025280084
:10371000C0B2082816D2022068432100C140C80761
:1037200003D52800C0B2FEF7EBFF02200221694357
:1037300088402040002803D02800C0B2FFF731F8AD
:103740006D1CE4E731BD0000281003402C1003403D
:103750000080034034100340008103403C100340CC
:1037600000820340441003400070034054100340A3
:10377000007103405C10034000720340641003407A
:1037800074100340781003409010034000B501000E
:1037900049B2002905D40121C206D20E91409F4AA8
:1037A000116000BD00B5010049B2002905D4012116
:1037B000C206D20E91409B4A116000BDF0B50200D6
:1037C00052B2002A1DD4964A03005BB29B0804241F
:1037D0006343D258FF238407A40F08256C43A340FA
:1037E0009A438B01DBB28407A40F08256C43A340E6
:1037F00013438B4A040064B2A40804256C4313519C
:1038000022E0894A03005BB21B071B0F083B9D089F
:1038100004235D43844B040064B22407240F083C56
:10382000A408042674431B59FF248607B60F0827F3
:103830007E43B440A3438C01E4B28607B60F082749
:103840007E43B4401C435451F0BD10B50400200029
:10385000C0B2102801DA012000E00020C0B2002828
:1038600006D1AA2271497248FEF7E6F900BF00BFEF
:10387000704800680121A1400022D2434A40024022
:103880006C4802606C482100C9B204225143405880
:10389000002806D068482100C9B20422514340588C
:1038A000804710BD10B504002000C0B2102801DA16
:1038B000012000E00020C0B2002806D1C3225B49ED
:1038C0005B48FEF7B9F900BF00BF5A480068012104
:1038D000A1400022D2434A40024056480260564866
:1038E0002100C9B2042251434058002806D0524852
:1038F0002100C9B2042251434058804710BD80B511
:103900004E480068804701BDF8B504000E00200055
:10391000C0B2102801DA012000E00020C0B2002867
:1039200006D1ED2241494248FEF786F900BF00BFAB
:10393000002E01D0012000E00020C0B2002806D1F6
:10394000EE223A493A48FEF777F900BF00BF3C48FB
:1039500005683C480168307801282ED12000C0B2AB
:10396000102825DA7078002805D0022810D008D356
:10397000032814D01AE003200222624390408543BA
:1039800016E02A00012502206043854015430FE020
:103990002A000225022060438540154308E02A00E2
:1039A0000325022060438540154301E0042034E0F4
:1039B0000120A0400843010002E00120A040814313
:1039C00070681D4A2300DBB204277B43D0501C489B
:1039D00005600020174A10601A48016019480768FE
:1039E000F8B2002809D00420FFF7DCFE03210420F0
:1039F000FFF7E4FE0420FFF7C9FEFF200002384075
:103A0000002809D00520FFF7CDFE03210520FFF790
:103A1000D5FE0520FFF7BAFE0020F2BD00E100E070
:103A200000E400E080E200E01CED00E02440000043
:103A300060440000080003402C0C0020EC0C002027
:103A40000C0003400000034080B500F07FF800F058
:103A500099F8FFF713FA00F01BF9FCF7EAFBFFF700
:103A6000F5F9FFF701FA0120FFF7CEFAFFF701FAA7
:103A7000FFF7F3F900F092F87648FCF734FCFCF716
:103A800040FC7548FDF79AFC7348FDF797FC7248B7
:103A9000FDF794FC7048FDF791FC6F48FDF78EFC34
:103AA0006D48FDF78BFC6C48FDF788FC6A48FDF714
:103AB00085FC6A480078002820D0002067490870FB
:103AC000674800780A2819DA65480078401C64497C
:103AD0000870FFF7BBF9FFF7C7F961480078FFF7F7
:103AE00093FAFFF7C6F9FFF7B8F900F057F8FCF7BB
:103AF000A0FB5848FCF7F7FBFCF703FC594800789B
:103B0000002820D000205749087055480078022826
:103B100019DB53480078401E51490870FFF796F9A9
:103B2000FFF7A2F94E480078FFF76EFAFFF7A1F908
:103B3000FFF793F900F032F8FCF77BFB4548FCF700
:103B4000D2FBFCF7DEFB00F023F8B2E738B584B017
:103B5000002400204449088010216846FDF722FC1B
:103B60000020694648700020694608706846FDF7E5
:103B7000BFFE05000020FDF7E5FD0320FDF7E2FF95
:103B800005B030BD80B5FFF722F9FCF70CFB01BD95
:103B900080B50121042000F0D3F801BD10B53348F1
:103BA000407DC0B200093249087000203049487099
:103BB0002E48807DC0B200092D49C87000202C49D4
:103BC00008712A48807900062849C9790904014307
:103BD0002648007A02020A432448407A10434400EF
:103BE000640820002349FDF7CFFF08002249FDF7B4
:103BF000CBFF2249087020001F49FDF7C5FF0800D0
:103C00001549FDF7C1FF1D49487020001249FDF715
:103C1000BBFF0800FA218900FDF7B6FF174988703D
:103C20002000FA218900FDF7AFFF08006421FDF7AD
:103C3000ABFF1249C8702E20104908712000642182
:103C4000FDF7A2FF08000A21FDF79EFF0B4948710E
:103C500010BD0000F103000010270000F80C002048
:103C6000280C0020F90C0020400001406C0C0020C2
:103C7000C40C002040420F00A0860100CC0C0020A4
:103C800001202449087070470120234908707047BB
:103C9000E0B52248007808210143204801702048FF
:103CA0000068C021090201431D4801601B480078DB
:103CB000102101431948017019480068C021890288
:103CC0000143174801600C216846FDF76BFB01209A
:103CD0006946087003206946487012480190012027
:103CE0006946087269460720FFF70EFE0120694603
:103CF00008700320694648700B480190012069460E
:103D0000087269460820FFF7FFFD0C216846FDF7A1
:103D100049FB07BDF80C0020F90C002008300340D7
:103D200010360340813C0000893C00005448007874
:103D3000C0B280B2704754480078C0B280B27047B9
:103D400038B504000D00FFF7F1FFFFF7F4FF200086
:103D5000C0B200280FD02000C0B201280BD0200034
:103D6000C0B2022807D02000C0B2032803D0200030
:103D7000C0B2042801D1012000E00020C0B2002818
:103D800006D1BD223F494148FDF756FF00BF00BFA5
:103D90002000C0B2002806D0022825D00BD304286A
:103DA00054D03AD36BE03A4800680421884338493C
:103DB000086030BF63E037480078FE210140354895
:103DC00001702800C0B2012803D13348334908608C
:103DD00002E03348314908602D480068042101435E
:103DE0002B48016030BF4AE02A4800780121014396
:103DF000284801702800C0B2012803D1264827496D
:103E0000086002E02648254908602148006804212E
:103E100001431F48016030BF31E01E480078012196
:103E200001431C4801702800C0B2012803D11D487D
:103E30001A49086002E01C481849086014480068E4
:103E4000042101431248016030BF18E01148007896
:103E5000FE2101400F4801702800C0B2012803D1A3
:103E600010480E49086002E00F480C4908600848F5
:103E70000068042101430648016030BFFFE731BDFF
:103E800000520340544000000452034068440000C4
:103E900010ED00E0005103400200CC1A0800014080
:103EA0001200CC1A0600CC1A1600CC1AFFFFFFE74E
:103EB000DBBDBDBDBDBDBDBDDBE7FFFFFFFFFFF748
:103EC000C7F7F7F7F7F7F7F7F7C1FFFFFFFFFFC3F4
:103ED000BDBDBDFDFBF7EFDFBD81FFFFFFFFFFC3F2
:103EE000BDBDFDFBE7FBFDBDBDC3FFFFFFFFFFFB4E
:103EF000F3F3EBDBDBBB80FBFBE0FFFFFFFFFF81AE
:103F0000BFBFBF87BBFDFDBDBBC7FFFFFFFFFFE717
:103F1000DBBFBFA39DBDBDBDDDE3FFFFFFFFFF8195
:103F2000BDFBFBF7F7EFEFEFEFEFFFFFFFFFFFC387
:103F3000BDBDBDDBE7DBBDBDBDC3FFFFFFFFFFC7F1
:103F4000BBBDBDBDB9C5FDFDDBE7FFFF0000000047
:103F50000000000000000000000000000000000061
:103F60000000000000000000000000000000000051
:103F700000000000000000000000000070B40123F9
:103F8000002413E00168001D194202D04D466D1E49
:103F900049190C60091D121F042AFAD20D00960758
:103FA00001D50C80AD1C1A4000D02C700268001D99
:103FB000002AE7D170BC704730B5016841184468E9
:103FC00062088A188368E4070DD54C461B190AE07D
:103FD0000C7864B2491C0D78491C1D705B1C002CC8
:103FE00005D5641CF9D19142F2D10C3030BD641E6C
:103FF000F1D5F8E7443A5C666C79576F726B5C7484
:104000006F6B656E34535A545C696E6D6967615CA1
:104010006472697665725C7372635C636C6B2E6349
:1040200000000000443A5C666C79576F726B5C74F8
:104030006F6B656E34535A545C696E6D6967615C71
:104040006472697665725C7372635C6578696E74BC
:104050002E630000443A5C666C79576F726B5C7437
:104060006F6B656E34535A545C696E6D6967615C41
:104070006472697665725C7372635C6C706D2E63DA
:1040800000000000443A5C666C79576F726B5C7498
:104090006F6B656E34535A545C696E6D6967615C11
:1040A0006472697665725C7372635C7363692E63B4
:1040B00000000000443A5C666C79576F726B5C7468
:1040C0006F6B656E34535A545C696E6D6967615CE1
:1040D0006472697665725C7372635C63742E6300EC
:1040E0000008000000026028280000010014000001
:1040F000000100121200000100000000000000009A
:104100000000000000000000000000004008000067
:104110000002902828000001401400000001A012B5
:10412000120000010000000000000000000000007C
:104130000000000000000000401700000002900F87
:104140000F000003400A01000001A00E0E00000253
:10415000000000000000000000000000000000005F
:1041600000000000800800000002902828000001E4
:104170008014000000015012120000010000000035
:10418000000000000000000000000000000000002F
:104190008008000000029028280000018014000020
:1041A0000001501212000001000000000000000099
:1041B0000000000000000000000000000548002290
:1041C000874500D9024404480260044880470448F7
:1041D000004700000000002008ED00E05D1C00002A
:1041E0004544000010B5074979441831064C7C4419
:1041F000163404E0081D0A68891888470100A142A6
:10420000F8D110BD080000002400000071FDFFFF80
:10421000D40000002C0C0020000000009DFDFFFFDA
:10422000700200007C01000000000020FFFF8003FE
:10423000F7DFF7DFF7DFF7DFF7DF0001F7DFF7DFA3
:10424000F7DFF7DFEFDFEFDFDFDFBFDFF7DFF7DF1E
:104250000001F7DFDF7FEF07EEF77D6FB79FB667EF
:10426000E9F91E07DEF7DEF7DE07DEF7EFDFEEDB4C
:10427000C35BDF57BFDF4203EEFBEEDB02DBEEDBAF
:10428000EEDBEEDBEBAFE777EEFBFDFDFFDF07DFFD
:10429000F603B7AFB777B6FBB40183F7FA17FAD7CF
:1042A000E2D71A17BAD7FBF7D7D7EFEFF7FFF60326
:1042B000EFFFDFFFB7FFF7FFEC01CFDFAFDF6FDF0F
:1042C000EFDFEFDFEFDFEFDFEF5FEFBFFFF7FFF7CE
:1042D00083F7BBF7BA01BBF7BBF783F7BB77BBB775
:1042E000BBB7BBF783F7BBF7FFD7FFEFDFFFEC03ED
:1042F000EFFBBFFBB83BBBBBBBBBBBBBB83BBBBB5C
:10430000BBBBBBBBB83BBFFBBFEBBFF7EFFFEFFFD8
:10431000EE03EEFB02FBEEFBEEFBEAFBE6FBCEFB65
:104320002EFBEEFBEEFBEE03AEFBDFFFFBBF8007D9
:10433000FBB7C007DBBFC003F7BBEFABDFF7A00FD6
:10434000EFEFEEEFEEEFFD3FF3CFCFF7FEFFFEFF17
:10435000FD7FFBBFF7DFEFEFD0173EF9FEFFC00791
:10436000FEFFEEEFEEF7DEFBBAFBFDFFEFFFF7011E
:1043700080EFBEDFEF83E1BBDDABABABF7ABEBAB0D
:10438000DDAB80AB5DD7DDDBC1BDDD7DFFBFFBBF3E
:10439000FBDFF7DFEFEFDFF7BFFB601DFBDFFBDFCE
:1043A000FBDFF7DFF7DFEFDFDEBFBF7FEFDFEFDF42
:1043B000C3DFDFDFBE0342DBEEDBEEDB02DBEE035F
:1043C000EEDBEFDFEBDFE7DFEFDFFFDFFFFFC00755
:1043D000FFFFFFFFFFFF0001FBBFFBBFFBBFFBBFFA
:1043E000F7BFF7BDEFBDDFBDBFC17FFF00F00DF828
:1043F000002801D0FFF7F6FE00BF00BF002000BF7D
:1044000000BFFFF721FB00F002F80120704780B5E4
:1044100000F002F801BDFEE707463846FDF742FC12
:10442000FBE7FEE7FFFFFFFFFFFFE7E7FFFFFFFF01
:10443000E7E7FFFFFFFFFFFFFFFFFFFFFFFFFFFFBC
:104440009F9FFFFF00BF00BF00BF00BFFFF7CEFF71
:1044500074657374000000007465737400000000DC
:1044600074657374000000007465737400000000CC
:10447000746573740000000002040810FEE7FEE794
:10448000FEE7FEE7FEE7FEE7FEE7FEE7FEE70000E9
:10449000FB0002500240F4000001FD000340500206
:1044A00040F4000002FD000380500240F4000003CD
:1044B000FD0003C0500240F4000004FC0002520260
:1044C00040F4000005FD000340520240F4000006E5
:1044D000FD000380520240F4000007FD0003C052BB
:1044E0000240F40081FF81FF81FF81FF81FF81FF96
:1044F00081FF81FF81FF81FF81FF81FF81FF81FFBC
:1045000081FF81FF81FF81FF81FF81FF81FF81FFAB
:10451000A2FF0500093D0000C0F90003A404000E3D
:10452000FD000D535A542E57414C4C45542E454EC8
:1045300056FD0003A4000002FC0003A4000002FCDE
:0E4540000003B201C417FD00041001001801B1
:04000005000044456E
:00000001FF
